{
  "contractName": "products",
  "abi": [
    {
      "inputs": [],
      "stateMutability": "nonpayable",
      "type": "constructor"
    },
    {
      "anonymous": false,
      "inputs": [
        {
          "indexed": false,
          "internalType": "string",
          "name": "product_name",
          "type": "string"
        },
        {
          "indexed": false,
          "internalType": "uint256",
          "name": "quantity",
          "type": "uint256"
        },
        {
          "indexed": false,
          "internalType": "string",
          "name": "name",
          "type": "string"
        },
        {
          "indexed": false,
          "internalType": "string",
          "name": "url",
          "type": "string"
        },
        {
          "indexed": false,
          "internalType": "string",
          "name": "price",
          "type": "string"
        }
      ],
      "name": "Product",
      "type": "event"
    },
    {
      "inputs": [],
      "name": "authority",
      "outputs": [
        {
          "internalType": "address",
          "name": "",
          "type": "address"
        }
      ],
      "stateMutability": "view",
      "type": "function",
      "constant": true
    },
    {
      "inputs": [
        {
          "internalType": "uint256",
          "name": "",
          "type": "uint256"
        }
      ],
      "name": "myStructsKeys",
      "outputs": [
        {
          "internalType": "string",
          "name": "",
          "type": "string"
        }
      ],
      "stateMutability": "view",
      "type": "function",
      "constant": true
    },
    {
      "inputs": [
        {
          "internalType": "string",
          "name": "",
          "type": "string"
        }
      ],
      "name": "productList",
      "outputs": [
        {
          "internalType": "uint256",
          "name": "quantity",
          "type": "uint256"
        },
        {
          "internalType": "string",
          "name": "name",
          "type": "string"
        },
        {
          "internalType": "string",
          "name": "url",
          "type": "string"
        },
        {
          "internalType": "string",
          "name": "price",
          "type": "string"
        },
        {
          "internalType": "bool",
          "name": "isSet",
          "type": "bool"
        }
      ],
      "stateMutability": "view",
      "type": "function",
      "constant": true
    },
    {
      "inputs": [],
      "name": "purchasers",
      "outputs": [
        {
          "internalType": "address",
          "name": "",
          "type": "address"
        }
      ],
      "stateMutability": "view",
      "type": "function",
      "constant": true
    },
    {
      "inputs": [
        {
          "internalType": "string",
          "name": "product_name",
          "type": "string"
        },
        {
          "internalType": "uint256",
          "name": "Quantity",
          "type": "uint256"
        },
        {
          "internalType": "string",
          "name": "name",
          "type": "string"
        },
        {
          "internalType": "string",
          "name": "url",
          "type": "string"
        },
        {
          "internalType": "string",
          "name": "price",
          "type": "string"
        }
      ],
      "name": "addProduct",
      "outputs": [],
      "stateMutability": "nonpayable",
      "type": "function"
    },
    {
      "inputs": [
        {
          "internalType": "string",
          "name": "product_name",
          "type": "string"
        }
      ],
      "name": "getMyProduct",
      "outputs": [
        {
          "internalType": "string",
          "name": "",
          "type": "string"
        },
        {
          "internalType": "uint256",
          "name": "",
          "type": "uint256"
        },
        {
          "internalType": "string",
          "name": "",
          "type": "string"
        },
        {
          "internalType": "string",
          "name": "",
          "type": "string"
        }
      ],
      "stateMutability": "view",
      "type": "function",
      "constant": true
    },
    {
      "inputs": [],
      "name": "getMyStructsKeys",
      "outputs": [
        {
          "internalType": "string[]",
          "name": "",
          "type": "string[]"
        }
      ],
      "stateMutability": "view",
      "type": "function",
      "constant": true
    },
    {
      "inputs": [
        {
          "internalType": "string",
          "name": "product_name",
          "type": "string"
        }
      ],
      "name": "getPurchasers",
      "outputs": [
        {
          "internalType": "address[]",
          "name": "",
          "type": "address[]"
        }
      ],
      "stateMutability": "view",
      "type": "function",
      "constant": true
    },
    {
      "inputs": [
        {
          "internalType": "string",
          "name": "product_name",
          "type": "string"
        }
      ],
      "name": "getcountRemain",
      "outputs": [
        {
          "internalType": "uint256",
          "name": "",
          "type": "uint256"
        }
      ],
      "stateMutability": "view",
      "type": "function",
      "constant": true
    },
    {
      "inputs": [
        {
          "internalType": "string",
          "name": "product_name",
          "type": "string"
        },
        {
          "internalType": "address",
          "name": "purchaser",
          "type": "address"
        }
      ],
      "name": "buyProduct",
      "outputs": [],
      "stateMutability": "payable",
      "type": "function",
      "payable": true
    }
  ],
  "bytecode": "0x608060405234801561001057600080fd5b5033600160006101000a81548173ffffffffffffffffffffffffffffffffffffffff021916908373ffffffffffffffffffffffffffffffffffffffff1602179055506115db806100616000396000f3fe6080604052600436106100915760003560e01c8063a771769d11610059578063a771769d146101a8578063b735da8d146101e5578063bf7e214f14610201578063df4055de1461022c578063ed569db51461025757610091565b806302879f9c146100965780630f6af9c4146100bf57806313ba04d9146101005780637b61affe1461012b578063a30655e614610168575b600080fd5b3480156100a257600080fd5b506100bd60048036038101906100b89190610ea0565b610294565b005b3480156100cb57600080fd5b506100e660048036038101906100e19190610f84565b6103ad565b6040516100f7959493929190611371565b60405180910390f35b34801561010c57600080fd5b506101156105ce565b6040516101229190611206565b60405180910390f35b34801561013757600080fd5b50610152600480360381019061014d9190610e03565b6105f2565b60405161015f9190611221565b60405180910390f35b34801561017457600080fd5b5061018f600480360381019061018a9190610e03565b6106a4565b60405161019f94939291906112fc565b60405180910390f35b3480156101b457600080fd5b506101cf60048036038101906101ca9190610e03565b61091d565b6040516101dc9190611356565b60405180910390f35b6101ff60048036038101906101fa9190610e48565b610978565b005b34801561020d57600080fd5b50610216610a56565b6040516102239190611206565b60405180910390f35b34801561023857600080fd5b50610241610a7c565b60405161024e9190611243565b60405180910390f35b34801561026357600080fd5b5061027e60048036038101906102799190610fc5565b610b65565b60405161028b91906112da565b60405180910390f35b6000600289896040516102a89291906111ed565b9081526020016040518091039020905086816000018190555083838260030191906102d4929190610c1e565b50818160040190805190602001906102ed929190610c9e565b5060018160050160006101000a81548160ff021916908315150217905550858582600201919061031e929190610c1e565b50600389899091806001815401808255809150506001900390600052602060002001600090919290919290919290919250919061035c929190610c1e565b507f1b4671830c39d8e77c2f48f1481c4a9f7c837449e9e0d54a6f9667c04b07218f898989898989898960405161039a989796959493929190611265565b60405180910390a1505050505050505050565b600281805160208101820180518482526020830160208501208183528095505050505050600091509050806000015490806002018054600181600116156101000203166002900480601f0160208091040260200160405190810160405280929190818152602001828054600181600116156101000203166002900480156104755780601f1061044a57610100808354040283529160200191610475565b820191906000526020600020905b81548152906001019060200180831161045857829003601f168201915b505050505090806003018054600181600116156101000203166002900480601f0160208091040260200160405190810160405280929190818152602001828054600181600116156101000203166002900480156105135780601f106104e857610100808354040283529160200191610513565b820191906000526020600020905b8154815290600101906020018083116104f657829003601f168201915b505050505090806004018054600181600116156101000203166002900480601f0160208091040260200160405190810160405280929190818152602001828054600181600116156101000203166002900480156105b15780601f10610586576101008083540402835291602001916105b1565b820191906000526020600020905b81548152906001019060200180831161059457829003601f168201915b5050505050908060050160009054906101000a900460ff16905085565b60008054906101000a900473ffffffffffffffffffffffffffffffffffffffff1681565b6060600283836040516106069291906111ed565b908152602001604051809103902060010180548060200260200160405190810160405280929190818152602001828054801561069757602002820191906000526020600020905b8160009054906101000a900473ffffffffffffffffffffffffffffffffffffffff1673ffffffffffffffffffffffffffffffffffffffff168152602001906001019080831161064d575b5050505050905092915050565b60606000606080600286866040516106bd9291906111ed565b9081526020016040518091039020600201600287876040516106e09291906111ed565b908152602001604051809103902060000154600288886040516107049291906111ed565b9081526020016040518091039020600301600289896040516107279291906111ed565b9081526020016040518091039020600401838054600181600116156101000203166002900480601f0160208091040260200160405190810160405280929190818152602001828054600181600116156101000203166002900480156107cd5780601f106107a2576101008083540402835291602001916107cd565b820191906000526020600020905b8154815290600101906020018083116107b057829003601f168201915b50505050509350818054600181600116156101000203166002900480601f0160208091040260200160405190810160405280929190818152602001828054600181600116156101000203166002900480156108695780601f1061083e57610100808354040283529160200191610869565b820191906000526020600020905b81548152906001019060200180831161084c57829003601f168201915b50505050509150808054600181600116156101000203166002900480601f0160208091040260200160405190810160405280929190818152602001828054600181600116156101000203166002900480156109055780601f106108da57610100808354040283529160200191610905565b820191906000526020600020905b8154815290600101906020018083116108e857829003601f168201915b50505050509050935093509350935092959194509250565b600080600284846040516109329291906111ed565b908152602001604051809103902060010180549050600285856040516109599291906111ed565b9081526020016040518091039020600001540390508091505092915050565b6002838360405161098a9291906111ed565b908152602001604051809103902060000154600284846040516109ae9291906111ed565b908152602001604051809103902060010180549050106109cd57600080fd5b600283836040516109df9291906111ed565b9081526020016040518091039020600101819080600181540180825580915050600190039060005260206000200160009091909190916101000a81548173ffffffffffffffffffffffffffffffffffffffff021916908373ffffffffffffffffffffffffffffffffffffffff160217905550505050565b600160009054906101000a900473ffffffffffffffffffffffffffffffffffffffff1681565b60606003805480602002602001604051908101604052809291908181526020016000905b82821015610b5c578382906000526020600020018054600181600116156101000203166002900480601f016020809104026020016040519081016040528092919081815260200182805460018160011615610100020316600290048015610b485780601f10610b1d57610100808354040283529160200191610b48565b820191906000526020600020905b815481529060010190602001808311610b2b57829003601f168201915b505050505081526020019060010190610aa0565b50505050905090565b60038181548110610b7257fe5b906000526020600020016000915090508054600181600116156101000203166002900480601f016020809104026020016040519081016040528092919081815260200182805460018160011615610100020316600290048015610c165780601f10610beb57610100808354040283529160200191610c16565b820191906000526020600020905b815481529060010190602001808311610bf957829003601f168201915b505050505081565b828054600181600116156101000203166002900490600052602060002090601f016020900481019282601f10610c5f57803560ff1916838001178555610c8d565b82800160010185558215610c8d579182015b82811115610c8c578235825591602001919060010190610c71565b5b509050610c9a9190610d1e565b5090565b828054600181600116156101000203166002900490600052602060002090601f016020900481019282601f10610cdf57805160ff1916838001178555610d0d565b82800160010185558215610d0d579182015b82811115610d0c578251825591602001919060010190610cf1565b5b509050610d1a9190610d1e565b5090565b5b80821115610d37576000816000905550600101610d1f565b5090565b600081359050610d4a81611577565b92915050565b60008083601f840112610d6257600080fd5b8235905067ffffffffffffffff811115610d7b57600080fd5b602083019150836001820283011115610d9357600080fd5b9250929050565b600082601f830112610dab57600080fd5b8135610dbe610db982611406565b6113d9565b91508082526020830160208301858383011115610dda57600080fd5b610de5838284611524565b50505092915050565b600081359050610dfd8161158e565b92915050565b60008060208385031215610e1657600080fd5b600083013567ffffffffffffffff811115610e3057600080fd5b610e3c85828601610d50565b92509250509250929050565b600080600060408486031215610e5d57600080fd5b600084013567ffffffffffffffff811115610e7757600080fd5b610e8386828701610d50565b93509350506020610e9686828701610d3b565b9150509250925092565b60008060008060008060008060a0898b031215610ebc57600080fd5b600089013567ffffffffffffffff811115610ed657600080fd5b610ee28b828c01610d50565b98509850506020610ef58b828c01610dee565b965050604089013567ffffffffffffffff811115610f1257600080fd5b610f1e8b828c01610d50565b9550955050606089013567ffffffffffffffff811115610f3d57600080fd5b610f498b828c01610d50565b9350935050608089013567ffffffffffffffff811115610f6857600080fd5b610f748b828c01610d9a565b9150509295985092959890939650565b600060208284031215610f9657600080fd5b600082013567ffffffffffffffff811115610fb057600080fd5b610fbc84828501610d9a565b91505092915050565b600060208284031215610fd757600080fd5b6000610fe584828501610dee565b91505092915050565b6000610ffa838361101a565b60208301905092915050565b6000611012838361116c565b905092915050565b611023816114dc565b82525050565b611032816114dc565b82525050565b600061104382611452565b61104d818561148d565b935061105883611432565b8060005b838110156110895781516110708882610fee565b975061107b83611473565b92505060018101905061105c565b5085935050505092915050565b60006110a18261145d565b6110ab818561149e565b9350836020820285016110bd85611442565b8060005b858110156110f957848403895281516110da8582611006565b94506110e583611480565b925060208a019950506001810190506110c1565b50829750879550505050505092915050565b611114816114ee565b82525050565b600061112683856114c0565b9350611133838584611524565b61113c83611566565b840190509392505050565b600061115383856114d1565b9350611160838584611524565b82840190509392505050565b600061117782611468565b61118181856114af565b9350611191818560208601611533565b61119a81611566565b840191505092915050565b60006111b082611468565b6111ba81856114c0565b93506111ca818560208601611533565b6111d381611566565b840191505092915050565b6111e78161151a565b82525050565b60006111fa828486611147565b91508190509392505050565b600060208201905061121b6000830184611029565b92915050565b6000602082019050818103600083015261123b8184611038565b905092915050565b6000602082019050818103600083015261125d8184611096565b905092915050565b600060a0820190508181036000830152611280818a8c61111a565b905061128f60208301896111de565b81810360408301526112a281878961111a565b905081810360608301526112b781858761111a565b905081810360808301526112cb81846111a5565b90509998505050505050505050565b600060208201905081810360008301526112f481846111a5565b905092915050565b6000608082019050818103600083015261131681876111a5565b905061132560208301866111de565b818103604083015261133781856111a5565b9050818103606083015261134b81846111a5565b905095945050505050565b600060208201905061136b60008301846111de565b92915050565b600060a08201905061138660008301886111de565b818103602083015261139881876111a5565b905081810360408301526113ac81866111a5565b905081810360608301526113c081856111a5565b90506113cf608083018461110b565b9695505050505050565b6000604051905081810181811067ffffffffffffffff821117156113fc57600080fd5b8060405250919050565b600067ffffffffffffffff82111561141d57600080fd5b601f19601f8301169050602081019050919050565b6000819050602082019050919050565b6000819050602082019050919050565b600081519050919050565b600081519050919050565b600081519050919050565b6000602082019050919050565b6000602082019050919050565b600082825260208201905092915050565b600082825260208201905092915050565b600082825260208201905092915050565b600082825260208201905092915050565b600081905092915050565b60006114e7826114fa565b9050919050565b60008115159050919050565b600073ffffffffffffffffffffffffffffffffffffffff82169050919050565b6000819050919050565b82818337600083830152505050565b60005b83811015611551578082015181840152602081019050611536565b83811115611560576000848401525b50505050565b6000601f19601f8301169050919050565b611580816114dc565b811461158b57600080fd5b50565b6115978161151a565b81146115a257600080fd5b5056fea2646970667358221220195ef88347adcfdd6feec6a88f8816e0acd8ace5a70d3a3579a1e70ad168fbfe64736f6c63430007010033",
  "immutableReferences": {},
  "source": "pragma solidity >=0.7.0 <0.9.0;\npragma experimental ABIEncoderV2;\n\ncontract products{\n    address public purchasers;\n    // uint256 constant Total_Supply = 20;\n    event Product(string product_name, uint256 quantity,string name, string url, string price);\n    address public authority;\n\n    struct ProductDetails {\n        uint256 quantity;\n        address[] purchasers;\n        string name;\n        string url;\n        string price;\n        bool isSet;\n    }\n    mapping(string => ProductDetails) public productList;\n    string[] public myStructsKeys;\n\n    struct Ticket{\n        address owner;\n        uint256 price;\n    }\n\n    // Ticket[Total_Supply] public tickets;\n\n    constructor(){\n        // for (uint256 i = 0;i < Total_Supply; i++){\n        //     tickets[i].owner = address(0x0);\n        //     tickets[i].price = 1e17;\n        // }\n        authority = msg.sender;\n    }\n    //Set product to contract;\n    function addProduct(string calldata product_name, uint256 Quantity,string calldata name, string calldata url, string memory price) public {\n        ProductDetails storage Productlist = productList[product_name];\n        \n        Productlist.quantity = Quantity;\n        Productlist.url = url;\n        Productlist.price = price;\n        Productlist.isSet = true;\n        Productlist.name = name;\n\n        myStructsKeys.push(product_name);\n\n        emit Product(product_name, Quantity,name, url, price);\n    }\n\n    // function addProductQuantity(string calldata product_name, uint256 addQuantity) public {\n    //     require(productList[product_name].isSet);\n    //     productList[product_name].quantity += addQuantity;\n    // }\n    \n\n    \n    //getter of ProductLists data\n     function getMyProduct(string calldata product_name) public view returns(string memory, uint256,string memory,string memory) {\n        return (productList[product_name].name, productList[product_name].quantity, productList[product_name].url,productList[product_name].price);\n    }\n    //getter of ProductLists length\n    function getMyStructsKeys() public view returns(string[] memory) {\n        return myStructsKeys;\n    }\n\n   function getPurchasers(string calldata product_name) public view returns (address[] memory) {\n        return productList[product_name].purchasers;\n    }\n    //Testing get purchasers\n    function getcountRemain(string calldata product_name) public view returns (uint256) {\n        uint256 countRemain = productList[product_name].quantity - productList[product_name].purchasers.length;\n        return countRemain;\n    }\n \n    //testing metamusk buy product\n    // function buyTicket(uint256 _index) external payable{\n    //     require(_index < Total_Supply && _index >= 0);\n    //     require(tickets[_index].owner == address(0x0));\n    //     require(msg.value >= tickets[_index].price);\n\n    //     tickets[_index].owner = msg.sender;\n    // }\n    function buyProduct(string calldata product_name, address purchaser) external payable { \n        require(productList[product_name].purchasers.length < productList[product_name].quantity); \n        productList[product_name].purchasers.push(purchaser);\n    }\n    \n}",
  "sourcePath": "/Users/markching/Desktop/HKMU/Year-4 Sem 2/ELEC-S431F/Project/E-Shop-Truffle/contracts/Products.sol",
  "compiler": {
    "name": "solc",
    "version": "0.7.1+commit.f4a555be.Emscripten.clang"
  },
  "schemaVersion": "3.4.16",
  "updatedAt": "2024-04-04T14:01:50.362Z",
  "networkType": "ethereum",
  "devdoc": {
    "kind": "dev",
    "methods": {},
    "version": 1
  },
  "userdoc": {
    "kind": "user",
    "methods": {},
    "version": 1
  }
}