{
  "contractName": "products",
  "abi": [
    {
      "inputs": [],
      "stateMutability": "nonpayable",
      "type": "constructor"
    },
    {
      "anonymous": false,
      "inputs": [
        {
          "indexed": false,
          "internalType": "string",
          "name": "product_name",
          "type": "string"
        },
        {
          "indexed": false,
          "internalType": "uint256",
          "name": "quantity",
          "type": "uint256"
        },
        {
          "indexed": false,
          "internalType": "string",
          "name": "name",
          "type": "string"
        },
        {
          "indexed": false,
          "internalType": "string",
          "name": "url",
          "type": "string"
        },
        {
          "indexed": false,
          "internalType": "uint256",
          "name": "price",
          "type": "uint256"
        }
      ],
      "name": "Product",
      "type": "event"
    },
    {
      "inputs": [],
      "name": "authority",
      "outputs": [
        {
          "internalType": "address",
          "name": "",
          "type": "address"
        }
      ],
      "stateMutability": "view",
      "type": "function",
      "constant": true
    },
    {
      "inputs": [
        {
          "internalType": "uint256",
          "name": "",
          "type": "uint256"
        }
      ],
      "name": "myStructsKeys",
      "outputs": [
        {
          "internalType": "string",
          "name": "",
          "type": "string"
        }
      ],
      "stateMutability": "view",
      "type": "function",
      "constant": true
    },
    {
      "inputs": [
        {
          "internalType": "string",
          "name": "",
          "type": "string"
        }
      ],
      "name": "productList",
      "outputs": [
        {
          "internalType": "uint256",
          "name": "quantity",
          "type": "uint256"
        },
        {
          "internalType": "string",
          "name": "name",
          "type": "string"
        },
        {
          "internalType": "string",
          "name": "url",
          "type": "string"
        },
        {
          "internalType": "uint256",
          "name": "price",
          "type": "uint256"
        },
        {
          "internalType": "bool",
          "name": "isSet",
          "type": "bool"
        }
      ],
      "stateMutability": "view",
      "type": "function",
      "constant": true
    },
    {
      "inputs": [],
      "name": "purchasers",
      "outputs": [
        {
          "internalType": "address",
          "name": "",
          "type": "address"
        }
      ],
      "stateMutability": "view",
      "type": "function",
      "constant": true
    },
    {
      "inputs": [
        {
          "internalType": "string",
          "name": "product_name",
          "type": "string"
        },
        {
          "internalType": "uint256",
          "name": "Quantity",
          "type": "uint256"
        },
        {
          "internalType": "string",
          "name": "name",
          "type": "string"
        },
        {
          "internalType": "string",
          "name": "url",
          "type": "string"
        },
        {
          "internalType": "uint256",
          "name": "price",
          "type": "uint256"
        }
      ],
      "name": "addProduct",
      "outputs": [],
      "stateMutability": "nonpayable",
      "type": "function"
    },
    {
      "inputs": [
        {
          "internalType": "string",
          "name": "product_name",
          "type": "string"
        },
        {
          "internalType": "address",
          "name": "purchaser",
          "type": "address"
        }
      ],
      "name": "purchaseProduct",
      "outputs": [],
      "stateMutability": "nonpayable",
      "type": "function"
    },
    {
      "inputs": [
        {
          "internalType": "string",
          "name": "product_name",
          "type": "string"
        }
      ],
      "name": "getMyProduct",
      "outputs": [
        {
          "internalType": "string",
          "name": "",
          "type": "string"
        },
        {
          "internalType": "uint256",
          "name": "",
          "type": "uint256"
        },
        {
          "internalType": "string",
          "name": "",
          "type": "string"
        },
        {
          "internalType": "uint256",
          "name": "",
          "type": "uint256"
        }
      ],
      "stateMutability": "view",
      "type": "function",
      "constant": true
    },
    {
      "inputs": [],
      "name": "getMyStructsKeys",
      "outputs": [
        {
          "internalType": "string[]",
          "name": "",
          "type": "string[]"
        }
      ],
      "stateMutability": "view",
      "type": "function",
      "constant": true
    }
  ],
  "bytecode": "0x608060405234801561001057600080fd5b5033600160006101000a81548173ffffffffffffffffffffffffffffffffffffffff021916908373ffffffffffffffffffffffffffffffffffffffff160217905550611106806100616000396000f3fe608060405234801561001057600080fd5b50600436106100885760003560e01c8063a30655e61161005b578063a30655e614610117578063bf7e214f1461014a578063df4055de14610168578063ed569db51461018657610088565b80630f0c782e1461008d5780630f6af9c4146100a957806313ba04d9146100dd578063519812de146100fb575b600080fd5b6100a760048036038101906100a29190610a9b565b6101b6565b005b6100c360048036038101906100be9190610bbf565b610294565b6040516100d4959493929190610edc565b60405180910390f35b6100e561041d565b6040516100f29190610dbc565b60405180910390f35b61011560048036038101906101109190610af3565b610441565b005b610131600480360381019061012c9190610a56565b61054a565b6040516101419493929190610e89565b60405180910390f35b610152610729565b60405161015f9190610dbc565b60405180910390f35b61017061074f565b60405161017d9190610dd7565b60405180910390f35b6101a0600480360381019061019b9190610c00565b610838565b6040516101ad9190610e67565b60405180910390f35b600283836040516101c8929190610da3565b908152602001604051809103902060000154600284846040516101ec929190610da3565b9081526020016040518091039020600101805490501061020b57600080fd5b6002838360405161021d929190610da3565b9081526020016040518091039020600101819080600181540180825580915050600190039060005260206000200160009091909190916101000a81548173ffffffffffffffffffffffffffffffffffffffff021916908373ffffffffffffffffffffffffffffffffffffffff160217905550505050565b600281805160208101820180518482526020830160208501208183528095505050505050600091509050806000015490806002018054600181600116156101000203166002900480601f01602080910402602001604051908101604052809291908181526020018280546001816001161561010002031660029004801561035c5780601f106103315761010080835404028352916020019161035c565b820191906000526020600020905b81548152906001019060200180831161033f57829003601f168201915b505050505090806003018054600181600116156101000203166002900480601f0160208091040260200160405190810160405280929190818152602001828054600181600116156101000203166002900480156103fa5780601f106103cf576101008083540402835291602001916103fa565b820191906000526020600020905b8154815290600101906020018083116103dd57829003601f168201915b5050505050908060040154908060050160009054906101000a900460ff16905085565b60008054906101000a900473ffffffffffffffffffffffffffffffffffffffff1681565b600060028989604051610455929190610da3565b9081526020016040518091039020905086816000018190555083838260030191906104819291906108f1565b5081816004018190555060018160050160006101000a81548160ff02191690831515021790555085858260020191906104bb9291906108f1565b5060038989909180600181540180825580915050600190039060005260206000200160009091929091929091929091925091906104f99291906108f1565b507f4ab708b57411408be93e4597dbb52255b1d614bd7a3dc64844edf9c85b6473cd8989898989898989604051610537989796959493929190610df9565b60405180910390a1505050505050505050565b606060006060600060028686604051610564929190610da3565b908152602001604051809103902060020160028787604051610587929190610da3565b908152602001604051809103902060000154600288886040516105ab929190610da3565b9081526020016040518091039020600301600289896040516105ce929190610da3565b908152602001604051809103902060040154838054600181600116156101000203166002900480601f0160208091040260200160405190810160405280929190818152602001828054600181600116156101000203166002900480156106755780601f1061064a57610100808354040283529160200191610675565b820191906000526020600020905b81548152906001019060200180831161065857829003601f168201915b50505050509350818054600181600116156101000203166002900480601f0160208091040260200160405190810160405280929190818152602001828054600181600116156101000203166002900480156107115780601f106106e657610100808354040283529160200191610711565b820191906000526020600020905b8154815290600101906020018083116106f457829003601f168201915b50505050509150935093509350935092959194509250565b600160009054906101000a900473ffffffffffffffffffffffffffffffffffffffff1681565b60606003805480602002602001604051908101604052809291908181526020016000905b8282101561082f578382906000526020600020018054600181600116156101000203166002900480601f01602080910402602001604051908101604052809291908181526020018280546001816001161561010002031660029004801561081b5780601f106107f05761010080835404028352916020019161081b565b820191906000526020600020905b8154815290600101906020018083116107fe57829003601f168201915b505050505081526020019060010190610773565b50505050905090565b6003818154811061084557fe5b906000526020600020016000915090508054600181600116156101000203166002900480601f0160208091040260200160405190810160405280929190818152602001828054600181600116156101000203166002900480156108e95780601f106108be576101008083540402835291602001916108e9565b820191906000526020600020905b8154815290600101906020018083116108cc57829003601f168201915b505050505081565b828054600181600116156101000203166002900490600052602060002090601f016020900481019282601f1061093257803560ff1916838001178555610960565b82800160010185558215610960579182015b8281111561095f578235825591602001919060010190610944565b5b50905061096d9190610971565b5090565b5b8082111561098a576000816000905550600101610972565b5090565b60008135905061099d816110a2565b92915050565b60008083601f8401126109b557600080fd5b8235905067ffffffffffffffff8111156109ce57600080fd5b6020830191508360018202830111156109e657600080fd5b9250929050565b600082601f8301126109fe57600080fd5b8135610a11610a0c82610f6a565b610f3d565b91508082526020830160208301858383011115610a2d57600080fd5b610a3883828461104f565b50505092915050565b600081359050610a50816110b9565b92915050565b60008060208385031215610a6957600080fd5b600083013567ffffffffffffffff811115610a8357600080fd5b610a8f858286016109a3565b92509250509250929050565b600080600060408486031215610ab057600080fd5b600084013567ffffffffffffffff811115610aca57600080fd5b610ad6868287016109a3565b93509350506020610ae98682870161098e565b9150509250925092565b60008060008060008060008060a0898b031215610b0f57600080fd5b600089013567ffffffffffffffff811115610b2957600080fd5b610b358b828c016109a3565b98509850506020610b488b828c01610a41565b965050604089013567ffffffffffffffff811115610b6557600080fd5b610b718b828c016109a3565b9550955050606089013567ffffffffffffffff811115610b9057600080fd5b610b9c8b828c016109a3565b93509350506080610baf8b828c01610a41565b9150509295985092959890939650565b600060208284031215610bd157600080fd5b600082013567ffffffffffffffff811115610beb57600080fd5b610bf7848285016109ed565b91505092915050565b600060208284031215610c1257600080fd5b6000610c2084828501610a41565b91505092915050565b6000610c358383610d22565b905092915050565b610c4681611007565b82525050565b6000610c5782610fa6565b610c618185610fc9565b935083602082028501610c7385610f96565b8060005b85811015610caf5784840389528151610c908582610c29565b9450610c9b83610fbc565b925060208a01995050600181019050610c77565b50829750879550505050505092915050565b610cca81611019565b82525050565b6000610cdc8385610feb565b9350610ce983858461104f565b610cf283611091565b840190509392505050565b6000610d098385610ffc565b9350610d1683858461104f565b82840190509392505050565b6000610d2d82610fb1565b610d378185610fda565b9350610d4781856020860161105e565b610d5081611091565b840191505092915050565b6000610d6682610fb1565b610d708185610feb565b9350610d8081856020860161105e565b610d8981611091565b840191505092915050565b610d9d81611045565b82525050565b6000610db0828486610cfd565b91508190509392505050565b6000602082019050610dd16000830184610c3d565b92915050565b60006020820190508181036000830152610df18184610c4c565b905092915050565b600060a0820190508181036000830152610e14818a8c610cd0565b9050610e236020830189610d94565b8181036040830152610e36818789610cd0565b90508181036060830152610e4b818587610cd0565b9050610e5a6080830184610d94565b9998505050505050505050565b60006020820190508181036000830152610e818184610d5b565b905092915050565b60006080820190508181036000830152610ea38187610d5b565b9050610eb26020830186610d94565b8181036040830152610ec48185610d5b565b9050610ed36060830184610d94565b95945050505050565b600060a082019050610ef16000830188610d94565b8181036020830152610f038187610d5b565b90508181036040830152610f178186610d5b565b9050610f266060830185610d94565b610f336080830184610cc1565b9695505050505050565b6000604051905081810181811067ffffffffffffffff82111715610f6057600080fd5b8060405250919050565b600067ffffffffffffffff821115610f8157600080fd5b601f19601f8301169050602081019050919050565b6000819050602082019050919050565b600081519050919050565b600081519050919050565b6000602082019050919050565b600082825260208201905092915050565b600082825260208201905092915050565b600082825260208201905092915050565b600081905092915050565b600061101282611025565b9050919050565b60008115159050919050565b600073ffffffffffffffffffffffffffffffffffffffff82169050919050565b6000819050919050565b82818337600083830152505050565b60005b8381101561107c578082015181840152602081019050611061565b8381111561108b576000848401525b50505050565b6000601f19601f8301169050919050565b6110ab81611007565b81146110b657600080fd5b50565b6110c281611045565b81146110cd57600080fd5b5056fea2646970667358221220ae341f79097ce312e1a49d0aa0bf09479bc450c00ec070c0021f19e44d558a9164736f6c63430007010033",
  "immutableReferences": {},
  "source": "pragma solidity >=0.7.0 <0.9.0;\npragma experimental ABIEncoderV2;\n\ncontract products{\n    address public purchasers;\n    // uint256 constant Total_Supply = 20;\n    event Product(string product_name, uint256 quantity,string name, string url, uint256 price);\n    address public authority;\n\n    struct ProductDetails {\n        uint256 quantity;\n        address[] purchasers;\n        string name;\n        string url;\n        uint256 price;\n        bool isSet;\n    }\n    mapping(string => ProductDetails) public productList;\n    string[] public myStructsKeys;\n\n    struct Ticket{\n        address owner;\n        uint256 price;\n    }\n\n    // Ticket[Total_Supply] public tickets;\n\n    constructor(){\n        // for (uint256 i = 0;i < Total_Supply; i++){\n        //     tickets[i].owner = address(0x0);\n        //     tickets[i].price = 1e17;\n        // }\n        authority = msg.sender;\n    }\n    //Set product to contract;\n    function addProduct(string calldata product_name, uint256 Quantity,string calldata name, string calldata url, uint256 price) public {\n        ProductDetails storage Productlist = productList[product_name];\n        \n        Productlist.quantity = Quantity;\n        Productlist.url = url;\n        Productlist.price = price;\n        Productlist.isSet = true;\n        Productlist.name = name;\n\n        myStructsKeys.push(product_name);\n\n        emit Product(product_name, Quantity,name, url, price);\n    }\n\n    // function addProductQuantity(string calldata product_name, uint256 addQuantity) public {\n    //     require(productList[product_name].isSet);\n    //     productList[product_name].quantity += addQuantity;\n    // }\n    \n    function purchaseProduct(string calldata product_name, address purchaser) public { \n        require(productList[product_name].purchasers.length < productList[product_name].quantity); \n        productList[product_name].purchasers.push(purchaser);\n    }\n    \n    //getter of ProductLists data\n     function getMyProduct(string calldata product_name) public view returns(string memory, uint256,string memory,uint256) {\n        return (productList[product_name].name, productList[product_name].quantity, productList[product_name].url,productList[product_name].price);\n    }\n    //getter of ProductLists length\n    function getMyStructsKeys() public view returns(string[] memory) {\n        return myStructsKeys;\n    }\n\n\n    //Testing get purchasers\n    // function getProductDetail(string calldata product_name) public view returns (address[] memory purchasers,uint256 countRemain,string memory name,string memory url,uint256 price) {\n    //     countRemain = productList[product_name].quantity - productList[product_name].purchasers.length;\n    //     name = productList[product_name].name;\n    //     url = productList[product_name].url;\n    //     price = productList[product_name].price;\n    //     return (productList[product_name].purchasers,countRemain,name,url,price);\n    // }\n\n    // function getcountPurchasers(string calldata product_name) public view returns (uint256){\n    //     uint256 countRemain = productList[product_name].quantity - productList[product_name].purchasers.length;\n    //     return countRemain;\n    // }\n    // function getPurchasers(string memory product) public view returns (address[] memory purchasers) {\n    //     return productList[product].purchasers;\n    // }\n    //testing metamusk buy product\n    // function buyTicket(uint256 _index) external payable{\n    //     require(_index < Total_Supply && _index >= 0);\n    //     require(tickets[_index].owner == address(0x0));\n    //     require(msg.value >= tickets[_index].price);\n\n    //     tickets[_index].owner = msg.sender;\n    // }\n    \n}",
  "sourcePath": "/Users/markching/Desktop/HKMU/Year-4 Sem 2/ELEC-S431F/Project/E-Shop-Truffle/contracts/Products.sol",
  "compiler": {
    "name": "solc",
    "version": "0.7.1+commit.f4a555be.Emscripten.clang"
  },
  "schemaVersion": "3.4.16",
  "updatedAt": "2024-04-04T07:59:18.289Z",
  "networkType": "ethereum",
  "devdoc": {
    "kind": "dev",
    "methods": {},
    "version": 1
  },
  "userdoc": {
    "kind": "user",
    "methods": {},
    "version": 1
  }
}