{
  "contractName": "products",
  "abi": [
    {
      "inputs": [],
      "stateMutability": "nonpayable",
      "type": "constructor"
    },
    {
      "anonymous": false,
      "inputs": [
        {
          "indexed": false,
          "internalType": "string",
          "name": "product_name",
          "type": "string"
        },
        {
          "indexed": false,
          "internalType": "uint256",
          "name": "quantity",
          "type": "uint256"
        },
        {
          "indexed": false,
          "internalType": "string",
          "name": "name",
          "type": "string"
        },
        {
          "indexed": false,
          "internalType": "string",
          "name": "url",
          "type": "string"
        },
        {
          "indexed": false,
          "internalType": "string",
          "name": "price",
          "type": "string"
        }
      ],
      "name": "Product",
      "type": "event"
    },
    {
      "inputs": [],
      "name": "authority",
      "outputs": [
        {
          "internalType": "address",
          "name": "",
          "type": "address"
        }
      ],
      "stateMutability": "view",
      "type": "function",
      "constant": true
    },
    {
      "inputs": [
        {
          "internalType": "uint256",
          "name": "",
          "type": "uint256"
        }
      ],
      "name": "myStructsKeys",
      "outputs": [
        {
          "internalType": "string",
          "name": "",
          "type": "string"
        }
      ],
      "stateMutability": "view",
      "type": "function",
      "constant": true
    },
    {
      "inputs": [
        {
          "internalType": "string",
          "name": "",
          "type": "string"
        }
      ],
      "name": "productList",
      "outputs": [
        {
          "internalType": "uint256",
          "name": "quantity",
          "type": "uint256"
        },
        {
          "internalType": "string",
          "name": "name",
          "type": "string"
        },
        {
          "internalType": "string",
          "name": "url",
          "type": "string"
        },
        {
          "internalType": "string",
          "name": "price",
          "type": "string"
        },
        {
          "internalType": "bool",
          "name": "isSet",
          "type": "bool"
        }
      ],
      "stateMutability": "view",
      "type": "function",
      "constant": true
    },
    {
      "inputs": [],
      "name": "purchasers",
      "outputs": [
        {
          "internalType": "address",
          "name": "",
          "type": "address"
        }
      ],
      "stateMutability": "view",
      "type": "function",
      "constant": true
    },
    {
      "inputs": [
        {
          "internalType": "string",
          "name": "product_name",
          "type": "string"
        },
        {
          "internalType": "uint256",
          "name": "Quantity",
          "type": "uint256"
        },
        {
          "internalType": "string",
          "name": "name",
          "type": "string"
        },
        {
          "internalType": "string",
          "name": "url",
          "type": "string"
        },
        {
          "internalType": "string",
          "name": "price",
          "type": "string"
        }
      ],
      "name": "addProduct",
      "outputs": [],
      "stateMutability": "nonpayable",
      "type": "function"
    },
    {
      "inputs": [
        {
          "internalType": "string",
          "name": "product_name",
          "type": "string"
        }
      ],
      "name": "getMyProduct",
      "outputs": [
        {
          "internalType": "string",
          "name": "",
          "type": "string"
        },
        {
          "internalType": "uint256",
          "name": "",
          "type": "uint256"
        },
        {
          "internalType": "string",
          "name": "",
          "type": "string"
        },
        {
          "internalType": "string",
          "name": "",
          "type": "string"
        },
        {
          "internalType": "address[]",
          "name": "",
          "type": "address[]"
        }
      ],
      "stateMutability": "view",
      "type": "function",
      "constant": true
    },
    {
      "inputs": [],
      "name": "getMyStructsKeys",
      "outputs": [
        {
          "internalType": "string[]",
          "name": "",
          "type": "string[]"
        }
      ],
      "stateMutability": "view",
      "type": "function",
      "constant": true
    },
    {
      "inputs": [
        {
          "internalType": "string",
          "name": "product_name",
          "type": "string"
        }
      ],
      "name": "getPurchasers",
      "outputs": [
        {
          "internalType": "address[]",
          "name": "",
          "type": "address[]"
        }
      ],
      "stateMutability": "view",
      "type": "function",
      "constant": true
    },
    {
      "inputs": [
        {
          "internalType": "string",
          "name": "product_name",
          "type": "string"
        }
      ],
      "name": "getcountRemain",
      "outputs": [
        {
          "internalType": "uint256",
          "name": "",
          "type": "uint256"
        }
      ],
      "stateMutability": "view",
      "type": "function",
      "constant": true
    },
    {
      "inputs": [
        {
          "internalType": "string",
          "name": "product_name",
          "type": "string"
        },
        {
          "internalType": "address",
          "name": "purchaser",
          "type": "address"
        }
      ],
      "name": "buyProduct",
      "outputs": [],
      "stateMutability": "payable",
      "type": "function",
      "payable": true
    }
  ],
  "bytecode": "0x608060405234801561001057600080fd5b5033600160006101000a81548173ffffffffffffffffffffffffffffffffffffffff021916908373ffffffffffffffffffffffffffffffffffffffff1602179055506116a1806100616000396000f3fe6080604052600436106100915760003560e01c8063a771769d11610059578063a771769d146101a9578063b735da8d146101e6578063bf7e214f14610202578063df4055de1461022d578063ed569db51461025857610091565b806302879f9c146100965780630f6af9c4146100bf57806313ba04d9146101005780637b61affe1461012b578063a30655e614610168575b600080fd5b3480156100a257600080fd5b506100bd60048036038101906100b89190610f51565b610295565b005b3480156100cb57600080fd5b506100e660048036038101906100e19190611035565b6103ae565b6040516100f7959493929190611437565b60405180910390f35b34801561010c57600080fd5b506101156105cf565b60405161012291906112b7565b60405180910390f35b34801561013757600080fd5b50610152600480360381019061014d9190610eb4565b6105f3565b60405161015f91906112d2565b60405180910390f35b34801561017457600080fd5b5061018f600480360381019061018a9190610eb4565b6106a5565b6040516101a09594939291906113ad565b60405180910390f35b3480156101b557600080fd5b506101d060048036038101906101cb9190610eb4565b6109ce565b6040516101dd919061141c565b60405180910390f35b61020060048036038101906101fb9190610ef9565b610a29565b005b34801561020e57600080fd5b50610217610b07565b60405161022491906112b7565b60405180910390f35b34801561023957600080fd5b50610242610b2d565b60405161024f91906112f4565b60405180910390f35b34801561026457600080fd5b5061027f600480360381019061027a9190611076565b610c16565b60405161028c919061138b565b60405180910390f35b6000600289896040516102a992919061129e565b9081526020016040518091039020905086816000018190555083838260030191906102d5929190610ccf565b50818160040190805190602001906102ee929190610d4f565b5060018160050160006101000a81548160ff021916908315150217905550858582600201919061031f929190610ccf565b50600389899091806001815401808255809150506001900390600052602060002001600090919290919290919290919250919061035d929190610ccf565b507f1b4671830c39d8e77c2f48f1481c4a9f7c837449e9e0d54a6f9667c04b07218f898989898989898960405161039b989796959493929190611316565b60405180910390a1505050505050505050565b600281805160208101820180518482526020830160208501208183528095505050505050600091509050806000015490806002018054600181600116156101000203166002900480601f0160208091040260200160405190810160405280929190818152602001828054600181600116156101000203166002900480156104765780601f1061044b57610100808354040283529160200191610476565b820191906000526020600020905b81548152906001019060200180831161045957829003601f168201915b505050505090806003018054600181600116156101000203166002900480601f0160208091040260200160405190810160405280929190818152602001828054600181600116156101000203166002900480156105145780601f106104e957610100808354040283529160200191610514565b820191906000526020600020905b8154815290600101906020018083116104f757829003601f168201915b505050505090806004018054600181600116156101000203166002900480601f0160208091040260200160405190810160405280929190818152602001828054600181600116156101000203166002900480156105b25780601f10610587576101008083540402835291602001916105b2565b820191906000526020600020905b81548152906001019060200180831161059557829003601f168201915b5050505050908060050160009054906101000a900460ff16905085565b60008054906101000a900473ffffffffffffffffffffffffffffffffffffffff1681565b60606002838360405161060792919061129e565b908152602001604051809103902060010180548060200260200160405190810160405280929190818152602001828054801561069857602002820191906000526020600020905b8160009054906101000a900473ffffffffffffffffffffffffffffffffffffffff1673ffffffffffffffffffffffffffffffffffffffff168152602001906001019080831161064e575b5050505050905092915050565b606060006060806060600287876040516106c092919061129e565b9081526020016040518091039020600201600288886040516106e392919061129e565b9081526020016040518091039020600001546002898960405161070792919061129e565b908152602001604051809103902060030160028a8a60405161072a92919061129e565b908152602001604051809103902060040160028b8b60405161074d92919061129e565b9081526020016040518091039020600101848054600181600116156101000203166002900480601f0160208091040260200160405190810160405280929190818152602001828054600181600116156101000203166002900480156107f35780601f106107c8576101008083540402835291602001916107f3565b820191906000526020600020905b8154815290600101906020018083116107d657829003601f168201915b50505050509450828054600181600116156101000203166002900480601f01602080910402602001604051908101604052809291908181526020018280546001816001161561010002031660029004801561088f5780601f106108645761010080835404028352916020019161088f565b820191906000526020600020905b81548152906001019060200180831161087257829003601f168201915b50505050509250818054600181600116156101000203166002900480601f01602080910402602001604051908101604052809291908181526020018280546001816001161561010002031660029004801561092b5780601f106109005761010080835404028352916020019161092b565b820191906000526020600020905b81548152906001019060200180831161090e57829003601f168201915b50505050509150808054806020026020016040519081016040528092919081815260200182805480156109b357602002820191906000526020600020905b8160009054906101000a900473ffffffffffffffffffffffffffffffffffffffff1673ffffffffffffffffffffffffffffffffffffffff1681526020019060010190808311610969575b50505050509050945094509450945094509295509295909350565b600080600284846040516109e392919061129e565b90815260200160405180910390206001018054905060028585604051610a0a92919061129e565b9081526020016040518091039020600001540390508091505092915050565b60028383604051610a3b92919061129e565b90815260200160405180910390206000015460028484604051610a5f92919061129e565b90815260200160405180910390206001018054905010610a7e57600080fd5b60028383604051610a9092919061129e565b9081526020016040518091039020600101819080600181540180825580915050600190039060005260206000200160009091909190916101000a81548173ffffffffffffffffffffffffffffffffffffffff021916908373ffffffffffffffffffffffffffffffffffffffff160217905550505050565b600160009054906101000a900473ffffffffffffffffffffffffffffffffffffffff1681565b60606003805480602002602001604051908101604052809291908181526020016000905b82821015610c0d578382906000526020600020018054600181600116156101000203166002900480601f016020809104026020016040519081016040528092919081815260200182805460018160011615610100020316600290048015610bf95780601f10610bce57610100808354040283529160200191610bf9565b820191906000526020600020905b815481529060010190602001808311610bdc57829003601f168201915b505050505081526020019060010190610b51565b50505050905090565b60038181548110610c2357fe5b906000526020600020016000915090508054600181600116156101000203166002900480601f016020809104026020016040519081016040528092919081815260200182805460018160011615610100020316600290048015610cc75780601f10610c9c57610100808354040283529160200191610cc7565b820191906000526020600020905b815481529060010190602001808311610caa57829003601f168201915b505050505081565b828054600181600116156101000203166002900490600052602060002090601f016020900481019282601f10610d1057803560ff1916838001178555610d3e565b82800160010185558215610d3e579182015b82811115610d3d578235825591602001919060010190610d22565b5b509050610d4b9190610dcf565b5090565b828054600181600116156101000203166002900490600052602060002090601f016020900481019282601f10610d9057805160ff1916838001178555610dbe565b82800160010185558215610dbe579182015b82811115610dbd578251825591602001919060010190610da2565b5b509050610dcb9190610dcf565b5090565b5b80821115610de8576000816000905550600101610dd0565b5090565b600081359050610dfb8161163d565b92915050565b60008083601f840112610e1357600080fd5b8235905067ffffffffffffffff811115610e2c57600080fd5b602083019150836001820283011115610e4457600080fd5b9250929050565b600082601f830112610e5c57600080fd5b8135610e6f610e6a826114cc565b61149f565b91508082526020830160208301858383011115610e8b57600080fd5b610e968382846115ea565b50505092915050565b600081359050610eae81611654565b92915050565b60008060208385031215610ec757600080fd5b600083013567ffffffffffffffff811115610ee157600080fd5b610eed85828601610e01565b92509250509250929050565b600080600060408486031215610f0e57600080fd5b600084013567ffffffffffffffff811115610f2857600080fd5b610f3486828701610e01565b93509350506020610f4786828701610dec565b9150509250925092565b60008060008060008060008060a0898b031215610f6d57600080fd5b600089013567ffffffffffffffff811115610f8757600080fd5b610f938b828c01610e01565b98509850506020610fa68b828c01610e9f565b965050604089013567ffffffffffffffff811115610fc357600080fd5b610fcf8b828c01610e01565b9550955050606089013567ffffffffffffffff811115610fee57600080fd5b610ffa8b828c01610e01565b9350935050608089013567ffffffffffffffff81111561101957600080fd5b6110258b828c01610e4b565b9150509295985092959890939650565b60006020828403121561104757600080fd5b600082013567ffffffffffffffff81111561106157600080fd5b61106d84828501610e4b565b91505092915050565b60006020828403121561108857600080fd5b600061109684828501610e9f565b91505092915050565b60006110ab83836110cb565b60208301905092915050565b60006110c3838361121d565b905092915050565b6110d4816115a2565b82525050565b6110e3816115a2565b82525050565b60006110f482611518565b6110fe8185611553565b9350611109836114f8565b8060005b8381101561113a578151611121888261109f565b975061112c83611539565b92505060018101905061110d565b5085935050505092915050565b600061115282611523565b61115c8185611564565b93508360208202850161116e85611508565b8060005b858110156111aa578484038952815161118b85826110b7565b945061119683611546565b925060208a01995050600181019050611172565b50829750879550505050505092915050565b6111c5816115b4565b82525050565b60006111d78385611586565b93506111e48385846115ea565b6111ed8361162c565b840190509392505050565b60006112048385611597565b93506112118385846115ea565b82840190509392505050565b60006112288261152e565b6112328185611575565b93506112428185602086016115f9565b61124b8161162c565b840191505092915050565b60006112618261152e565b61126b8185611586565b935061127b8185602086016115f9565b6112848161162c565b840191505092915050565b611298816115e0565b82525050565b60006112ab8284866111f8565b91508190509392505050565b60006020820190506112cc60008301846110da565b92915050565b600060208201905081810360008301526112ec81846110e9565b905092915050565b6000602082019050818103600083015261130e8184611147565b905092915050565b600060a0820190508181036000830152611331818a8c6111cb565b9050611340602083018961128f565b81810360408301526113538187896111cb565b905081810360608301526113688185876111cb565b9050818103608083015261137c8184611256565b90509998505050505050505050565b600060208201905081810360008301526113a58184611256565b905092915050565b600060a08201905081810360008301526113c78188611256565b90506113d6602083018761128f565b81810360408301526113e88186611256565b905081810360608301526113fc8185611256565b9050818103608083015261141081846110e9565b90509695505050505050565b6000602082019050611431600083018461128f565b92915050565b600060a08201905061144c600083018861128f565b818103602083015261145e8187611256565b905081810360408301526114728186611256565b905081810360608301526114868185611256565b905061149560808301846111bc565b9695505050505050565b6000604051905081810181811067ffffffffffffffff821117156114c257600080fd5b8060405250919050565b600067ffffffffffffffff8211156114e357600080fd5b601f19601f8301169050602081019050919050565b6000819050602082019050919050565b6000819050602082019050919050565b600081519050919050565b600081519050919050565b600081519050919050565b6000602082019050919050565b6000602082019050919050565b600082825260208201905092915050565b600082825260208201905092915050565b600082825260208201905092915050565b600082825260208201905092915050565b600081905092915050565b60006115ad826115c0565b9050919050565b60008115159050919050565b600073ffffffffffffffffffffffffffffffffffffffff82169050919050565b6000819050919050565b82818337600083830152505050565b60005b838110156116175780820151818401526020810190506115fc565b83811115611626576000848401525b50505050565b6000601f19601f8301169050919050565b611646816115a2565b811461165157600080fd5b50565b61165d816115e0565b811461166857600080fd5b5056fea264697066735822122050450f62aab4dccd95b47ff780273ffe15017b8d3392164af3f6c6f2463778e564736f6c63430007010033",
  "immutableReferences": {},
  "source": "pragma solidity >=0.7.0 <0.9.0;\npragma experimental ABIEncoderV2;\n\ncontract products{\n    address public purchasers;\n    // uint256 constant Total_Supply = 20;\n    event Product(string product_name, uint256 quantity,string name, string url, string price);\n    address public authority;\n\n    struct ProductDetails {\n        uint256 quantity;\n        address[] purchasers;\n        string name;\n        string url;\n        string price;\n        bool isSet;\n    }\n    mapping(string => ProductDetails) public productList;\n    string[] public myStructsKeys;\n\n    struct Ticket{\n        address owner;\n        uint256 price;\n    }\n\n    // Ticket[Total_Supply] public tickets;\n\n    constructor(){\n        // for (uint256 i = 0;i < Total_Supply; i++){\n        //     tickets[i].owner = address(0x0);\n        //     tickets[i].price = 1e17;\n        // }\n        authority = msg.sender;\n    }\n    //Set product to contract;\n    function addProduct(string calldata product_name, uint256 Quantity,string calldata name, string calldata url, string memory price) public {\n        ProductDetails storage Productlist = productList[product_name];\n        \n        Productlist.quantity = Quantity;\n        Productlist.url = url;\n        Productlist.price = price;\n        Productlist.isSet = true;\n        Productlist.name = name;\n\n        myStructsKeys.push(product_name);\n\n        emit Product(product_name, Quantity,name, url, price);\n    }\n\n    // function addProductQuantity(string calldata product_name, uint256 addQuantity) public {\n    //     require(productList[product_name].isSet);\n    //     productList[product_name].quantity += addQuantity;\n    // }\n    \n\n    \n    //getter of ProductLists data\n     function getMyProduct(string calldata product_name) public view returns(string memory, uint256,string memory,string memory,address[] memory) {\n        return (productList[product_name].name, productList[product_name].quantity, productList[product_name].url,productList[product_name].price,productList[product_name].purchasers);\n    }\n    //getter of ProductLists length\n    function getMyStructsKeys() public view returns(string[] memory) {\n        return myStructsKeys;\n    }\n\n   function getPurchasers(string calldata product_name) public view returns (address[] memory) {\n        return productList[product_name].purchasers;\n    }\n    //Testing get purchasers\n    function getcountRemain(string calldata product_name) public view returns (uint256) {\n        uint256 countRemain = productList[product_name].quantity - productList[product_name].purchasers.length;\n        return countRemain;\n    }\n \n    //testing metamusk buy product\n    // function buyTicket(uint256 _index) external payable{\n    //     require(_index < Total_Supply && _index >= 0);\n    //     require(tickets[_index].owner == address(0x0));\n    //     require(msg.value >= tickets[_index].price);\n\n    //     tickets[_index].owner = msg.sender;\n    // }\n    function buyProduct(string calldata product_name, address purchaser) external payable { \n        require(productList[product_name].purchasers.length < productList[product_name].quantity); \n        productList[product_name].purchasers.push(purchaser);\n    }\n    \n}",
  "sourcePath": "/Users/markching/Desktop/HKMU/Year-4 Sem 2/ELEC-S431F/Project/E-Shop-Truffle/contracts/Products.sol",
  "compiler": {
    "name": "solc",
    "version": "0.7.1+commit.f4a555be.Emscripten.clang"
  },
  "schemaVersion": "3.4.16",
  "updatedAt": "2024-04-06T09:50:05.522Z",
  "networkType": "ethereum",
  "devdoc": {
    "kind": "dev",
    "methods": {},
    "version": 1
  },
  "userdoc": {
    "kind": "user",
    "methods": {},
    "version": 1
  }
}