{
  "contractName": "products",
  "abi": [
    {
      "inputs": [],
      "stateMutability": "nonpayable",
      "type": "constructor"
    },
    {
      "anonymous": false,
      "inputs": [
        {
          "indexed": false,
          "internalType": "string",
          "name": "product_name",
          "type": "string"
        },
        {
          "indexed": false,
          "internalType": "uint256",
          "name": "quantity",
          "type": "uint256"
        },
        {
          "indexed": false,
          "internalType": "string",
          "name": "name",
          "type": "string"
        },
        {
          "indexed": false,
          "internalType": "string",
          "name": "url",
          "type": "string"
        },
        {
          "indexed": false,
          "internalType": "uint256",
          "name": "price",
          "type": "uint256"
        }
      ],
      "name": "Product",
      "type": "event"
    },
    {
      "inputs": [],
      "name": "authority",
      "outputs": [
        {
          "internalType": "address",
          "name": "",
          "type": "address"
        }
      ],
      "stateMutability": "view",
      "type": "function",
      "constant": true
    },
    {
      "inputs": [],
      "name": "purchasers",
      "outputs": [
        {
          "internalType": "address",
          "name": "",
          "type": "address"
        }
      ],
      "stateMutability": "view",
      "type": "function",
      "constant": true
    },
    {
      "inputs": [
        {
          "internalType": "string",
          "name": "product_name",
          "type": "string"
        },
        {
          "internalType": "uint256",
          "name": "Quantity",
          "type": "uint256"
        },
        {
          "internalType": "string",
          "name": "name",
          "type": "string"
        },
        {
          "internalType": "string",
          "name": "url",
          "type": "string"
        },
        {
          "internalType": "uint256",
          "name": "price",
          "type": "uint256"
        }
      ],
      "name": "addProduct",
      "outputs": [],
      "stateMutability": "nonpayable",
      "type": "function"
    },
    {
      "inputs": [
        {
          "internalType": "string",
          "name": "product_name",
          "type": "string"
        },
        {
          "internalType": "uint256",
          "name": "addQuantity",
          "type": "uint256"
        }
      ],
      "name": "addProductQuantity",
      "outputs": [],
      "stateMutability": "nonpayable",
      "type": "function"
    },
    {
      "inputs": [
        {
          "internalType": "string",
          "name": "product_name",
          "type": "string"
        },
        {
          "internalType": "address",
          "name": "purchaser",
          "type": "address"
        }
      ],
      "name": "purchaseProduct",
      "outputs": [],
      "stateMutability": "nonpayable",
      "type": "function"
    },
    {
      "inputs": [
        {
          "internalType": "string",
          "name": "product_name",
          "type": "string"
        }
      ],
      "name": "getProductDetail",
      "outputs": [
        {
          "internalType": "address[]",
          "name": "purchasers",
          "type": "address[]"
        },
        {
          "internalType": "uint256",
          "name": "countRemain",
          "type": "uint256"
        },
        {
          "internalType": "string",
          "name": "name",
          "type": "string"
        },
        {
          "internalType": "string",
          "name": "url",
          "type": "string"
        },
        {
          "internalType": "uint256",
          "name": "price",
          "type": "uint256"
        }
      ],
      "stateMutability": "view",
      "type": "function",
      "constant": true
    },
    {
      "inputs": [
        {
          "internalType": "string",
          "name": "product_name",
          "type": "string"
        }
      ],
      "name": "getcountPurchasers",
      "outputs": [
        {
          "internalType": "uint256",
          "name": "",
          "type": "uint256"
        }
      ],
      "stateMutability": "view",
      "type": "function",
      "constant": true
    },
    {
      "inputs": [
        {
          "internalType": "string",
          "name": "product",
          "type": "string"
        }
      ],
      "name": "getPurchasers",
      "outputs": [
        {
          "internalType": "address[]",
          "name": "purchasers",
          "type": "address[]"
        }
      ],
      "stateMutability": "view",
      "type": "function",
      "constant": true
    }
  ],
  "bytecode": "0x608060405234801561001057600080fd5b5033600160006101000a81548173ffffffffffffffffffffffffffffffffffffffff021916908373ffffffffffffffffffffffffffffffffffffffff160217905550610f72806100616000396000f3fe608060405234801561001057600080fd5b50600436106100885760003560e01c80637b61affe1161005b5780637b61affe14610314578063a24d08bf14610424578063bf7e214f146104b1578063ee786260146104e557610088565b80630f0c782e1461008d57806313ba04d914610126578063519812de1461015a57806353e2e4ea14610291575b600080fd5b610124600480360360408110156100a357600080fd5b81019080803590602001906401000000008111156100c057600080fd5b8201836020820111156100d257600080fd5b803590602001918460018302840111640100000000831117156100f457600080fd5b9091929391929390803573ffffffffffffffffffffffffffffffffffffffff169060200190929190505050610699565b005b61012e61078c565b604051808273ffffffffffffffffffffffffffffffffffffffff16815260200191505060405180910390f35b61028f600480360360a081101561017057600080fd5b810190808035906020019064010000000081111561018d57600080fd5b82018360208201111561019f57600080fd5b803590602001918460018302840111640100000000831117156101c157600080fd5b909192939192939080359060200190929190803590602001906401000000008111156101ec57600080fd5b8201836020820111156101fe57600080fd5b8035906020019184600183028401116401000000008311171561022057600080fd5b90919293919293908035906020019064010000000081111561024157600080fd5b82018360208201111561025357600080fd5b8035906020019184600183028401116401000000008311171561027557600080fd5b9091929391929390803590602001909291905050506107b0565b005b610312600480360360408110156102a757600080fd5b81019080803590602001906401000000008111156102c457600080fd5b8201836020820111156102d657600080fd5b803590602001918460018302840111640100000000831117156102f857600080fd5b9091929391929390803590602001909291905050506109b2565b005b6103cd6004803603602081101561032a57600080fd5b810190808035906020019064010000000081111561034757600080fd5b82018360208201111561035957600080fd5b8035906020019184600183028401116401000000008311171561037b57600080fd5b91908080601f016020809104026020016040519081016040528093929190818152602001838380828437600081840152601f19601f820116905080830192505050505050509192919290505050610a30565b6040518080602001828103825283818151815260200191508051906020019060200280838360005b838110156104105780820151818401526020810190506103f5565b505050509050019250505060405180910390f35b61049b6004803603602081101561043a57600080fd5b810190808035906020019064010000000081111561045757600080fd5b82018360208201111561046957600080fd5b8035906020019184600183028401116401000000008311171561048b57600080fd5b9091929391929390505050610b2a565b6040518082815260200191505060405180910390f35b6104b9610b93565b604051808273ffffffffffffffffffffffffffffffffffffffff16815260200191505060405180910390f35b61055c600480360360208110156104fb57600080fd5b810190808035906020019064010000000081111561051857600080fd5b82018360208201111561052a57600080fd5b8035906020019184600183028401116401000000008311171561054c57600080fd5b9091929391929390505050610bb9565b60405180806020018681526020018060200180602001858152602001848103845289818151815260200191508051906020019060200280838360005b838110156105b3578082015181840152602081019050610598565b50505050905001848103835287818151815260200191508051906020019080838360005b838110156105f25780820151818401526020810190506105d7565b50505050905090810190601f16801561061f5780820380516001836020036101000a031916815260200191505b50848103825286818151815260200191508051906020019080838360005b8381101561065857808201518184015260208101905061063d565b50505050905090810190601f1680156106855780820380516001836020036101000a031916815260200191505b509850505050505050505060405180910390f35b6002838360405180838380828437808301925050509250505090815260200160405180910390206000015460028484604051808383808284378083019250505092505050908152602001604051809103902060010180549050106106fc57600080fd5b600283836040518083838082843780830192505050925050509081526020016040518091039020600101819080600181540180825580915050600190039060005260206000200160009091909190916101000a81548173ffffffffffffffffffffffffffffffffffffffff021916908373ffffffffffffffffffffffffffffffffffffffff160217905550505050565b60008054906101000a900473ffffffffffffffffffffffffffffffffffffffff1681565b8560028989604051808383808284378083019250505092505050908152602001604051809103902060000181905550828260028a8a60405180838380828437808301925050509250505090815260200160405180910390206003019190610818929190610e9f565b5067016345785d8a000060028989604051808383808284378083019250505092505050908152602001604051809103902060040181905550600160028989604051808383808284378083019250505092505050908152602001604051809103902060050160006101000a81548160ff021916908315150217905550878760028a8a604051808383808284378083019250505092505050908152602001604051809103902060020191906108cc929190610e9f565b507f4ab708b57411408be93e4597dbb52255b1d614bd7a3dc64844edf9c85b6473cd88888888888888886040518080602001888152602001806020018060200185815260200184810384528c8c82818152602001925080828437600081840152601f19601f8201169050808301925050508481038352898982818152602001925080828437600081840152601f19601f8201169050808301925050508481038252878782818152602001925080828437600081840152601f19601f8201169050808301925050509b50505050505050505050505060405180910390a15050505050505050565b60028383604051808383808284378083019250505092505050908152602001604051809103902060050160009054906101000a900460ff166109f357600080fd5b8060028484604051808383808284378083019250505092505050908152602001604051809103902060000160008282540192505081905550505050565b60606002826040518082805190602001908083835b60208310610a685780518252602082019150602081019050602083039250610a45565b6001836020036101000a0380198251168184511680821785525050505050509050019150509081526020016040518091039020600101805480602002602001604051908101604052809291908181526020018280548015610b1e57602002820191906000526020600020905b8160009054906101000a900473ffffffffffffffffffffffffffffffffffffffff1673ffffffffffffffffffffffffffffffffffffffff1681526020019060010190808311610ad4575b50505050509050919050565b60008060028484604051808383808284378083019250505092505050908152602001604051809103902060010180549050600285856040518083838082843780830192505050925050509081526020016040518091039020600001540390508091505092915050565b600160009054906101000a900473ffffffffffffffffffffffffffffffffffffffff1681565b60606000606080600060028787604051808383808284378083019250505092505050908152602001604051809103902060010180549050600288886040518083838082843780830192505050925050509081526020016040518091039020600001540393506002878760405180838380828437808301925050509250505090815260200160405180910390206002018054600181600116156101000203166002900480601f016020809104026020016040519081016040528092919081815260200182805460018160011615610100020316600290048015610cdc5780601f10610cb157610100808354040283529160200191610cdc565b820191906000526020600020905b815481529060010190602001808311610cbf57829003601f168201915b505050505092506002878760405180838380828437808301925050509250505090815260200160405180910390206003018054600181600116156101000203166002900480601f016020809104026020016040519081016040528092919081815260200182805460018160011615610100020316600290048015610da15780601f10610d7657610100808354040283529160200191610da1565b820191906000526020600020905b815481529060010190602001808311610d8457829003601f168201915b505050505091506002878760405180838380828437808301925050509250505090815260200160405180910390206004015490506002878760405180838380828437808301925050509250505090815260200160405180910390206001018484848484805480602002602001604051908101604052809291908181526020018280548015610e8457602002820191906000526020600020905b8160009054906101000a900473ffffffffffffffffffffffffffffffffffffffff1673ffffffffffffffffffffffffffffffffffffffff1681526020019060010190808311610e3a575b50505050509450945094509450945094509295509295909350565b828054600181600116156101000203166002900490600052602060002090601f016020900481019282601f10610ee057803560ff1916838001178555610f0e565b82800160010185558215610f0e579182015b82811115610f0d578235825591602001919060010190610ef2565b5b509050610f1b9190610f1f565b5090565b5b80821115610f38576000816000905550600101610f20565b509056fea2646970667358221220d3d10330013a18c7b52442422b91b57779f7983e0a88936f7af019e679c5ae2564736f6c63430007010033",
  "immutableReferences": {},
  "source": "pragma solidity >=0.7.0 <0.9.0;\n\ncontract products{\n    address public purchasers;\n    // uint256 constant Total_Supply = 20;\n    event Product(string product_name, uint256 quantity,string name, string url, uint256 price);\n    address public authority;\n\n    struct ProductDetails {\n        uint256 quantity;\n        address[] purchasers;\n        string name;\n        string url;\n        uint256 price;\n        bool isSet;\n    }\n    mapping(string => ProductDetails) productList;\n\n\n    struct Ticket{\n        address owner;\n        uint256 price;\n    }\n\n    // Ticket[Total_Supply] public tickets;\n\n    constructor(){\n        // for (uint256 i = 0;i < Total_Supply; i++){\n        //     tickets[i].owner = address(0x0);\n        //     tickets[i].price = 1e17;\n        // }\n        authority = msg.sender;\n    }\n\n    function addProduct(string calldata product_name, uint256 Quantity,string calldata name, string calldata url, uint256 price) public {\n        \n        productList[product_name].quantity = Quantity;\n        productList[product_name].url = url;\n        productList[product_name].price = 1e17;\n        productList[product_name].isSet = true;\n        productList[product_name].name = product_name;\n\n        emit Product(product_name, Quantity,name, url, price);\n    }\n\n    function addProductQuantity(string calldata product_name, uint256 addQuantity) public {\n        require(productList[product_name].isSet);\n        productList[product_name].quantity += addQuantity;\n    }\n    \n    function purchaseProduct(string calldata product_name, address purchaser) public { \n        require(productList[product_name].purchasers.length < productList[product_name].quantity); \n        productList[product_name].purchasers.push(purchaser);\n    }\n    \n\n    //Testing get purchasers\n    function getProductDetail(string calldata product_name) public view returns (address[] memory purchasers,uint256 countRemain,string memory name,string memory url,uint256 price) {\n        countRemain = productList[product_name].quantity - productList[product_name].purchasers.length;\n        name = productList[product_name].name;\n        url = productList[product_name].url;\n        price = productList[product_name].price;\n        return (productList[product_name].purchasers,countRemain,name,url,price);\n    }\n\n    function getcountPurchasers(string calldata product_name) public view returns (uint256){\n        uint256 countRemain = productList[product_name].quantity - productList[product_name].purchasers.length;\n        return countRemain;\n    }\n    function getPurchasers(string memory product) public view returns (address[] memory purchasers) {\n        return productList[product].purchasers;\n    }\n    //testing metamusk buy product\n    // function buyTicket(uint256 _index) external payable{\n    //     require(_index < Total_Supply && _index >= 0);\n    //     require(tickets[_index].owner == address(0x0));\n    //     require(msg.value >= tickets[_index].price);\n\n    //     tickets[_index].owner = msg.sender;\n    // }\n    \n}",
  "sourcePath": "/Users/markching/Desktop/HKMU/Year-4 Sem 2/ELEC-S431F/Project/E-Shop-Truffle/contracts/Products.sol",
  "compiler": {
    "name": "solc",
    "version": "0.7.1+commit.f4a555be.Emscripten.clang"
  },
  "schemaVersion": "3.4.16",
  "updatedAt": "2024-03-31T20:24:14.583Z",
  "networkType": "ethereum",
  "devdoc": {
    "kind": "dev",
    "methods": {},
    "version": 1
  },
  "userdoc": {
    "kind": "user",
    "methods": {},
    "version": 1
  }
}