{
  "contractName": "Purchasing",
  "abi": [
    {
      "inputs": [],
      "stateMutability": "nonpayable",
      "type": "constructor"
    },
    {
      "anonymous": false,
      "inputs": [
        {
          "indexed": false,
          "internalType": "string",
          "name": "product",
          "type": "string"
        },
        {
          "indexed": false,
          "internalType": "uint256",
          "name": "quantity",
          "type": "uint256"
        },
        {
          "indexed": false,
          "internalType": "string",
          "name": "url",
          "type": "string"
        },
        {
          "indexed": false,
          "internalType": "string",
          "name": "price",
          "type": "string"
        },
        {
          "indexed": false,
          "internalType": "string",
          "name": "description",
          "type": "string"
        },
        {
          "indexed": false,
          "internalType": "string",
          "name": "company",
          "type": "string"
        },
        {
          "indexed": false,
          "internalType": "string",
          "name": "id",
          "type": "string"
        }
      ],
      "name": "Product",
      "type": "event"
    },
    {
      "inputs": [],
      "name": "authority",
      "outputs": [
        {
          "internalType": "address",
          "name": "",
          "type": "address"
        }
      ],
      "stateMutability": "view",
      "type": "function"
    },
    {
      "inputs": [
        {
          "internalType": "string",
          "name": "",
          "type": "string"
        }
      ],
      "name": "productList",
      "outputs": [
        {
          "internalType": "uint256",
          "name": "quantity",
          "type": "uint256"
        },
        {
          "internalType": "string",
          "name": "url",
          "type": "string"
        },
        {
          "internalType": "string",
          "name": "description",
          "type": "string"
        },
        {
          "internalType": "string",
          "name": "price",
          "type": "string"
        },
        {
          "internalType": "string",
          "name": "company",
          "type": "string"
        },
        {
          "internalType": "string",
          "name": "id",
          "type": "string"
        },
        {
          "internalType": "bool",
          "name": "isSet",
          "type": "bool"
        }
      ],
      "stateMutability": "view",
      "type": "function"
    },
    {
      "inputs": [
        {
          "internalType": "string",
          "name": "product",
          "type": "string"
        },
        {
          "internalType": "uint256",
          "name": "addQuantity",
          "type": "uint256"
        },
        {
          "internalType": "string",
          "name": "url",
          "type": "string"
        },
        {
          "internalType": "string",
          "name": "description",
          "type": "string"
        },
        {
          "internalType": "string",
          "name": "price",
          "type": "string"
        },
        {
          "internalType": "string",
          "name": "company",
          "type": "string"
        },
        {
          "internalType": "string",
          "name": "id",
          "type": "string"
        }
      ],
      "name": "addProduct",
      "outputs": [],
      "stateMutability": "nonpayable",
      "type": "function"
    },
    {
      "inputs": [
        {
          "internalType": "string",
          "name": "product",
          "type": "string"
        },
        {
          "internalType": "uint256",
          "name": "addQuantity",
          "type": "uint256"
        }
      ],
      "name": "addProductQuantity",
      "outputs": [],
      "stateMutability": "nonpayable",
      "type": "function"
    },
    {
      "inputs": [
        {
          "internalType": "string",
          "name": "product",
          "type": "string"
        },
        {
          "internalType": "address",
          "name": "purchaser",
          "type": "address"
        }
      ],
      "name": "purchaseProduct",
      "outputs": [],
      "stateMutability": "nonpayable",
      "type": "function"
    },
    {
      "inputs": [
        {
          "internalType": "string",
          "name": "product",
          "type": "string"
        }
      ],
      "name": "getPurchasers",
      "outputs": [
        {
          "internalType": "address[]",
          "name": "purchasers",
          "type": "address[]"
        }
      ],
      "stateMutability": "view",
      "type": "function"
    }
  ],
  "bytecode": "0x608060405234801561001057600080fd5b5033600160006101000a81548173ffffffffffffffffffffffffffffffffffffffff021916908373ffffffffffffffffffffffffffffffffffffffff160217905550611849806100616000396000f3fe608060405234801561001057600080fd5b50600436106100625760003560e01c80630f0c782e146100675780630f6af9c41461014257806353e2e4ea146104365780637b61affe146104fb578063bf7e214f1461060b578063e319bc731461063f575b600080fd5b6101406004803603604081101561007d57600080fd5b810190808035906020019064010000000081111561009a57600080fd5b8201836020820111156100ac57600080fd5b803590602001918460018302840111640100000000831117156100ce57600080fd5b91908080601f016020809104026020016040519081016040528093929190818152602001838380828437600081840152601f19601f820116905080830192505050505050509192919290803573ffffffffffffffffffffffffffffffffffffffff1690602001909291905050506109f7565b005b6101fb6004803603602081101561015857600080fd5b810190808035906020019064010000000081111561017557600080fd5b82018360208201111561018757600080fd5b803590602001918460018302840111640100000000831117156101a957600080fd5b91908080601f016020809104026020016040519081016040528093929190818152602001838380828437600081840152601f19601f820116905080830192505050505050509192919290505050610baf565b604051808881526020018060200180602001806020018060200180602001871515815260200186810386528c818151815260200191508051906020019080838360005b8381101561025957808201518184015260208101905061023e565b50505050905090810190601f1680156102865780820380516001836020036101000a031916815260200191505b5086810385528b818151815260200191508051906020019080838360005b838110156102bf5780820151818401526020810190506102a4565b50505050905090810190601f1680156102ec5780820380516001836020036101000a031916815260200191505b5086810384528a818151815260200191508051906020019080838360005b8381101561032557808201518184015260208101905061030a565b50505050905090810190601f1680156103525780820380516001836020036101000a031916815260200191505b50868103835289818151815260200191508051906020019080838360005b8381101561038b578082015181840152602081019050610370565b50505050905090810190601f1680156103b85780820380516001836020036101000a031916815260200191505b50868103825288818151815260200191508051906020019080838360005b838110156103f15780820151818401526020810190506103d6565b50505050905090810190601f16801561041e5780820380516001836020036101000a031916815260200191505b509c5050505050505050505050505060405180910390f35b6104f96004803603604081101561044c57600080fd5b810190808035906020019064010000000081111561046957600080fd5b82018360208201111561047b57600080fd5b8035906020019184600183028401116401000000008311171561049d57600080fd5b91908080601f016020809104026020016040519081016040528093929190818152602001838380828437600081840152601f19601f82011690508083019250505050505050919291929080359060200190929190505050610f0c565b005b6105b46004803603602081101561051157600080fd5b810190808035906020019064010000000081111561052e57600080fd5b82018360208201111561054057600080fd5b8035906020019184600183028401116401000000008311171561056257600080fd5b91908080601f016020809104026020016040519081016040528093929190818152602001838380828437600081840152601f19601f82011690508083019250505050505050919291929050505061100d565b6040518080602001828103825283818151815260200191508051906020019060200280838360005b838110156105f75780820151818401526020810190506105dc565b505050509050019250505060405180910390f35b610613611107565b604051808273ffffffffffffffffffffffffffffffffffffffff16815260200191505060405180910390f35b6109f5600480360360e081101561065557600080fd5b810190808035906020019064010000000081111561067257600080fd5b82018360208201111561068457600080fd5b803590602001918460018302840111640100000000831117156106a657600080fd5b91908080601f016020809104026020016040519081016040528093929190818152602001838380828437600081840152601f19601f820116905080830192505050505050509192919290803590602001909291908035906020019064010000000081111561071357600080fd5b82018360208201111561072557600080fd5b8035906020019184600183028401116401000000008311171561074757600080fd5b91908080601f016020809104026020016040519081016040528093929190818152602001838380828437600081840152601f19601f820116905080830192505050505050509192919290803590602001906401000000008111156107aa57600080fd5b8201836020820111156107bc57600080fd5b803590602001918460018302840111640100000000831117156107de57600080fd5b91908080601f016020809104026020016040519081016040528093929190818152602001838380828437600081840152601f19601f8201169050808301925050505050505091929192908035906020019064010000000081111561084157600080fd5b82018360208201111561085357600080fd5b8035906020019184600183028401116401000000008311171561087557600080fd5b91908080601f016020809104026020016040519081016040528093929190818152602001838380828437600081840152601f19601f820116905080830192505050505050509192919290803590602001906401000000008111156108d857600080fd5b8201836020820111156108ea57600080fd5b8035906020019184600183028401116401000000008311171561090c57600080fd5b91908080601f016020809104026020016040519081016040528093929190818152602001838380828437600081840152601f19601f8201169050808301925050505050505091929192908035906020019064010000000081111561096f57600080fd5b82018360208201111561098157600080fd5b803590602001918460018302840111640100000000831117156109a357600080fd5b91908080601f016020809104026020016040519081016040528093929190818152602001838380828437600081840152601f19601f82011690508083019250505050505050919291929050505061112d565b005b6000826040518082805190602001908083835b60208310610a2d5780518252602082019150602081019050602083039250610a0a565b6001836020036101000a0380198251168184511680821785525050505050509050019150509081526020016040518091039020600001546000836040518082805190602001908083835b60208310610a9a5780518252602082019150602081019050602083039250610a77565b6001836020036101000a03801982511681845116808217855250505050505090500191505090815260200160405180910390206001018054905010610ade57600080fd5b6000826040518082805190602001908083835b60208310610b145780518252602082019150602081019050602083039250610af1565b6001836020036101000a0380198251168184511680821785525050505050509050019150509081526020016040518091039020600101819080600181540180825580915050600190039060005260206000200160009091909190916101000a81548173ffffffffffffffffffffffffffffffffffffffff021916908373ffffffffffffffffffffffffffffffffffffffff1602179055505050565b600081805160208101820180518482526020830160208501208183528095505050505050600091509050806000015490806002018054600181600116156101000203166002900480601f016020809104026020016040519081016040528092919081815260200182805460018160011615610100020316600290048015610c775780601f10610c4c57610100808354040283529160200191610c77565b820191906000526020600020905b815481529060010190602001808311610c5a57829003601f168201915b505050505090806003018054600181600116156101000203166002900480601f016020809104026020016040519081016040528092919081815260200182805460018160011615610100020316600290048015610d155780601f10610cea57610100808354040283529160200191610d15565b820191906000526020600020905b815481529060010190602001808311610cf857829003601f168201915b505050505090806004018054600181600116156101000203166002900480601f016020809104026020016040519081016040528092919081815260200182805460018160011615610100020316600290048015610db35780601f10610d8857610100808354040283529160200191610db3565b820191906000526020600020905b815481529060010190602001808311610d9657829003601f168201915b505050505090806005018054600181600116156101000203166002900480601f016020809104026020016040519081016040528092919081815260200182805460018160011615610100020316600290048015610e515780601f10610e2657610100808354040283529160200191610e51565b820191906000526020600020905b815481529060010190602001808311610e3457829003601f168201915b505050505090806006018054600181600116156101000203166002900480601f016020809104026020016040519081016040528092919081815260200182805460018160011615610100020316600290048015610eef5780601f10610ec457610100808354040283529160200191610eef565b820191906000526020600020905b815481529060010190602001808311610ed257829003601f168201915b5050505050908060070160009054906101000a900460ff16905087565b6000826040518082805190602001908083835b60208310610f425780518252602082019150602081019050602083039250610f1f565b6001836020036101000a038019825116818451168082178552505050505050905001915050908152602001604051809103902060070160009054906101000a900460ff16610f8f57600080fd5b806000836040518082805190602001908083835b60208310610fc65780518252602082019150602081019050602083039250610fa3565b6001836020036101000a0380198251168184511680821785525050505050509050019150509081526020016040518091039020600001600082825401925050819055505050565b60606000826040518082805190602001908083835b602083106110455780518252602082019150602081019050602083039250611022565b6001836020036101000a03801982511681845116808217855250505050505090500191505090815260200160405180910390206001018054806020026020016040519081016040528092919081815260200182805480156110fb57602002820191906000526020600020905b8160009054906101000a900473ffffffffffffffffffffffffffffffffffffffff1673ffffffffffffffffffffffffffffffffffffffff16815260200190600101908083116110b1575b50505050509050919050565b600160009054906101000a900473ffffffffffffffffffffffffffffffffffffffff1681565b856000886040518082805190602001908083835b602083106111645780518252602082019150602081019050602083039250611141565b6001836020036101000a038019825116818451168082178552505050505050905001915050908152602001604051809103902060000181905550846000886040518082805190602001908083835b602083106111d557805182526020820191506020810190506020830392506111b2565b6001836020036101000a0380198251168184511680821785525050505050509050019150509081526020016040518091039020600201908051906020019061121e929190611776565b50826000886040518082805190602001908083835b602083106112565780518252602082019150602081019050602083039250611233565b6001836020036101000a0380198251168184511680821785525050505050509050019150509081526020016040518091039020600401908051906020019061129f929190611776565b50836000886040518082805190602001908083835b602083106112d757805182526020820191506020810190506020830392506112b4565b6001836020036101000a03801982511681845116808217855250505050505090500191505090815260200160405180910390206003019080519060200190611320929190611776565b50816000886040518082805190602001908083835b602083106113585780518252602082019150602081019050602083039250611335565b6001836020036101000a038019825116818451168082178552505050505050905001915050908152602001604051809103902060050190805190602001906113a1929190611776565b50806000886040518082805190602001908083835b602083106113d957805182526020820191506020810190506020830392506113b6565b6001836020036101000a03801982511681845116808217855250505050505090500191505090815260200160405180910390206006019080519060200190611422929190611776565b5060016000886040518082805190602001908083835b6020831061145b5780518252602082019150602081019050602083039250611438565b6001836020036101000a038019825116818451168082178552505050505050905001915050908152602001604051809103902060070160006101000a81548160ff0219169083151502179055507f3d8ad89303fc9c4d5ba3218e3cb881a4f94e91a5bac2bf6d8d9a1733671a622f878787868887876040518080602001888152602001806020018060200180602001806020018060200187810387528e818151815260200191508051906020019080838360005b8381101561152a57808201518184015260208101905061150f565b50505050905090810190601f1680156115575780820380516001836020036101000a031916815260200191505b5087810386528c818151815260200191508051906020019080838360005b83811015611590578082015181840152602081019050611575565b50505050905090810190601f1680156115bd5780820380516001836020036101000a031916815260200191505b5087810385528b818151815260200191508051906020019080838360005b838110156115f65780820151818401526020810190506115db565b50505050905090810190601f1680156116235780820380516001836020036101000a031916815260200191505b5087810384528a818151815260200191508051906020019080838360005b8381101561165c578082015181840152602081019050611641565b50505050905090810190601f1680156116895780820380516001836020036101000a031916815260200191505b50878103835289818151815260200191508051906020019080838360005b838110156116c25780820151818401526020810190506116a7565b50505050905090810190601f1680156116ef5780820380516001836020036101000a031916815260200191505b50878103825288818151815260200191508051906020019080838360005b8381101561172857808201518184015260208101905061170d565b50505050905090810190601f1680156117555780820380516001836020036101000a031916815260200191505b509d505050505050505050505050505060405180910390a150505050505050565b828054600181600116156101000203166002900490600052602060002090601f016020900481019282601f106117b757805160ff19168380011785556117e5565b828001600101855582156117e5579182015b828111156117e45782518255916020019190600101906117c9565b5b5090506117f291906117f6565b5090565b5b8082111561180f5760008160009055506001016117f7565b509056fea2646970667358221220c21df2a76bdc1e2ef1d42487002e8eb2b3e61cd10fef5c742868e90d6fa06cbe64736f6c63430007010033",
  "immutableReferences": {},
  "source": "pragma solidity >=0.5.0 <0.9.0;\n\ncontract Purchasing {\n    event Product(string product, uint quantity, string url, string price, string description, string company, string id);\n    struct ProductDetails {\n        uint quantity;\n        address[] purchasers;\n        string url;\n        string description;\n        string price;\n        string company;\n        string id;\n        bool isSet;\n    }\n    mapping(string => ProductDetails) public productList;\n    address public authority;\n  \n    constructor() public {\n        authority = msg.sender;\n    }\n    \n    function addProduct(string memory product, uint addQuantity, string memory url, string memory description, string memory price, string memory company, string memory id) public {\n        productList[product].quantity = addQuantity;\n        productList[product].url = url;\n        productList[product].price = price;\n        productList[product].description = description;\n        productList[product].company = company;\n        productList[product].id = id;\n        productList[product].isSet = true;\n        emit Product(product, addQuantity, url, price, description, company, id);\n    }\n\n    function addProductQuantity(string memory product, uint addQuantity) public {\n        require(productList[product].isSet);\n        productList[product].quantity += addQuantity;\n    }\n    \n    function purchaseProduct(string memory product, address purchaser) public {\n        require(productList[product].purchasers.length < productList[product].quantity); \n        productList[product].purchasers.push(purchaser);\n    }\n    \n    function getPurchasers(string memory product) public view returns (address[] memory purchasers) {\n        return productList[product].purchasers;\n    }\n}",
  "sourcePath": "/Users/markching/Desktop/HKMU/Year-4 Sem 2/ELEC-S431F/Project/E-Shop-Truffle/contracts/Purchasing.sol",
  "compiler": {
    "name": "solc",
    "version": "0.7.1+commit.f4a555be.Emscripten.clang"
  },
  "schemaVersion": "3.4.16",
  "updatedAt": "2024-03-27T09:38:18.242Z",
  "devdoc": {
    "kind": "dev",
    "methods": {},
    "version": 1
  },
  "userdoc": {
    "kind": "user",
    "methods": {},
    "version": 1
  }
}