{
  "contractName": "Tickets",
  "abi": [
    {
      "inputs": [],
      "stateMutability": "nonpayable",
      "type": "constructor"
    },
    {
      "inputs": [],
      "name": "owner",
      "outputs": [
        {
          "internalType": "address",
          "name": "",
          "type": "address"
        }
      ],
      "stateMutability": "view",
      "type": "function",
      "constant": true
    },
    {
      "inputs": [
        {
          "internalType": "uint256",
          "name": "",
          "type": "uint256"
        }
      ],
      "name": "tickets",
      "outputs": [
        {
          "internalType": "address",
          "name": "owner",
          "type": "address"
        },
        {
          "internalType": "uint256",
          "name": "price",
          "type": "uint256"
        }
      ],
      "stateMutability": "view",
      "type": "function",
      "constant": true
    },
    {
      "inputs": [
        {
          "internalType": "uint256",
          "name": "_index",
          "type": "uint256"
        }
      ],
      "name": "buyTicket",
      "outputs": [],
      "stateMutability": "payable",
      "type": "function",
      "payable": true
    }
  ],
  "bytecode": "0x6080604052336000806101000a81548173ffffffffffffffffffffffffffffffffffffffff021916908373ffffffffffffffffffffffffffffffffffffffff16021790555034801561005057600080fd5b5060005b60148110156100df5760006001826014811061006c57fe5b6002020160000160006101000a81548173ffffffffffffffffffffffffffffffffffffffff021916908373ffffffffffffffffffffffffffffffffffffffff16021790555067016345785d8a0000600182601481106100c757fe5b60020201600101819055508080600101915050610054565b506102b3806100ef6000396000f3fe6080604052600436106100345760003560e01c806350b447121461003957806367dd74ca146100a55780638da5cb5b146100d3575b600080fd5b34801561004557600080fd5b506100726004803603602081101561005c57600080fd5b8101908080359060200190929190505050610114565b604051808373ffffffffffffffffffffffffffffffffffffffff1681526020018281526020019250505060405180910390f35b6100d1600480360360208110156100bb57600080fd5b810190808035906020019092919050505061015b565b005b3480156100df57600080fd5b506100e8610259565b604051808273ffffffffffffffffffffffffffffffffffffffff16815260200191505060405180910390f35b6001816014811061012157fe5b600202016000915090508060000160009054906101000a900473ffffffffffffffffffffffffffffffffffffffff16908060010154905082565b60148110801561016c575060008110155b61017557600080fd5b600073ffffffffffffffffffffffffffffffffffffffff166001826014811061019a57fe5b6002020160000160009054906101000a900473ffffffffffffffffffffffffffffffffffffffff1673ffffffffffffffffffffffffffffffffffffffff16146101e257600080fd5b600181601481106101ef57fe5b600202016001015434101561020357600080fd5b336001826014811061021157fe5b6002020160000160006101000a81548173ffffffffffffffffffffffffffffffffffffffff021916908373ffffffffffffffffffffffffffffffffffffffff16021790555050565b60008054906101000a900473ffffffffffffffffffffffffffffffffffffffff168156fea2646970667358221220d61660f3bef3b03377dbb658346f920c685441d0c664bf137d77e14b6ed1f01164736f6c63430007010033",
  "immutableReferences": {},
  "source": "pragma solidity >=0.5.0 <0.9.0;\n\n\n\ncontract Tickets{\n    address public owner = msg.sender;\n    uint256 constant Total_Supply = 20;\n    // string public name = \"Eshop Token\";\n    // // set the token symbol\n    // string public symbol = \"Epos\";\n    // uint8 public decimals = 0;\n\n    struct Ticket{\n        address owner;\n        uint256 price;\n    }\n\n    Ticket[Total_Supply] public tickets;\n\n    constructor(){\n        for (uint256 i = 0;i < Total_Supply; i++){\n            tickets[i].owner = address(0x0);\n            tickets[i].price = 1e17;\n        }\n    }\n\n    function buyTicket(uint256 _index) external payable{\n        require(_index < Total_Supply && _index >= 0);\n        require(tickets[_index].owner == address(0x0));\n        require(msg.value >= tickets[_index].price);\n\n        tickets[_index].owner = msg.sender;\n    }\n    \n}",
  "sourcePath": "/Users/markching/Desktop/HKMU/Year-4 Sem 2/ELEC-S431F/Project/E-Shop-Truffle/contracts/Tickets.sol",
  "compiler": {
    "name": "solc",
    "version": "0.7.1+commit.f4a555be.Emscripten.clang"
  },
  "schemaVersion": "3.4.16",
  "updatedAt": "2024-03-27T09:38:18.690Z",
  "networkType": "ethereum",
  "devdoc": {
    "kind": "dev",
    "methods": {},
    "version": 1
  },
  "userdoc": {
    "kind": "user",
    "methods": {},
    "version": 1
  }
}