{
  "contractName": "Tickets",
  "abi": [
    {
      "inputs": [],
      "stateMutability": "nonpayable",
      "type": "constructor"
    },
    {
      "anonymous": false,
      "inputs": [
        {
          "indexed": false,
          "internalType": "string",
          "name": "product_name",
          "type": "string"
        },
        {
          "indexed": false,
          "internalType": "uint256",
          "name": "quantity",
          "type": "uint256"
        },
        {
          "indexed": false,
          "internalType": "string",
          "name": "url",
          "type": "string"
        },
        {
          "indexed": false,
          "internalType": "uint256",
          "name": "price",
          "type": "uint256"
        }
      ],
      "name": "Product",
      "type": "event"
    },
    {
      "inputs": [
        {
          "internalType": "string",
          "name": "",
          "type": "string"
        }
      ],
      "name": "productList",
      "outputs": [
        {
          "internalType": "uint256",
          "name": "quantity",
          "type": "uint256"
        },
        {
          "internalType": "string",
          "name": "url",
          "type": "string"
        },
        {
          "internalType": "uint256",
          "name": "price",
          "type": "uint256"
        },
        {
          "internalType": "bool",
          "name": "isSet",
          "type": "bool"
        }
      ],
      "stateMutability": "view",
      "type": "function",
      "constant": true
    },
    {
      "inputs": [],
      "name": "purchasers",
      "outputs": [
        {
          "internalType": "address",
          "name": "",
          "type": "address"
        }
      ],
      "stateMutability": "view",
      "type": "function",
      "constant": true
    },
    {
      "inputs": [
        {
          "internalType": "string",
          "name": "product_name",
          "type": "string"
        },
        {
          "internalType": "uint256",
          "name": "addQuantity",
          "type": "uint256"
        },
        {
          "internalType": "string",
          "name": "url",
          "type": "string"
        },
        {
          "internalType": "uint256",
          "name": "price",
          "type": "uint256"
        }
      ],
      "name": "addProduct",
      "outputs": [],
      "stateMutability": "nonpayable",
      "type": "function"
    },
    {
      "inputs": [
        {
          "internalType": "string",
          "name": "product",
          "type": "string"
        },
        {
          "internalType": "uint256",
          "name": "addQuantity",
          "type": "uint256"
        }
      ],
      "name": "addProductQuantity",
      "outputs": [],
      "stateMutability": "nonpayable",
      "type": "function"
    },
    {
      "inputs": [
        {
          "internalType": "string",
          "name": "product_name",
          "type": "string"
        },
        {
          "internalType": "address",
          "name": "purchasers",
          "type": "address"
        }
      ],
      "name": "purchaseProduct",
      "outputs": [],
      "stateMutability": "payable",
      "type": "function",
      "payable": true
    },
    {
      "inputs": [
        {
          "internalType": "string",
          "name": "product",
          "type": "string"
        }
      ],
      "name": "getPurchasers",
      "outputs": [
        {
          "internalType": "address[]",
          "name": "purchasers",
          "type": "address[]"
        }
      ],
      "stateMutability": "view",
      "type": "function",
      "constant": true
    }
  ],
  "bytecode": "0x608060405234801561001057600080fd5b50336000806101000a81548173ffffffffffffffffffffffffffffffffffffffff021916908373ffffffffffffffffffffffffffffffffffffffff160217905550610ecb806100606000396000f3fe6080604052600436106100555760003560e01c80630f0c782e1461005a5780630f6af9c41461013557806313ba04d91461028d5780633a2a925c146102ce57806353e2e4ea146104415780637b61affe14610513575b600080fd5b6101336004803603604081101561007057600080fd5b810190808035906020019064010000000081111561008d57600080fd5b82018360208201111561009f57600080fd5b803590602001918460018302840111640100000000831117156100c157600080fd5b91908080601f016020809104026020016040519081016040528093929190818152602001838380828437600081840152601f19601f820116905080830192505050505050509192919290803573ffffffffffffffffffffffffffffffffffffffff169060200190929190505050610630565b005b34801561014157600080fd5b506101fb6004803603602081101561015857600080fd5b810190808035906020019064010000000081111561017557600080fd5b82018360208201111561018757600080fd5b803590602001918460018302840111640100000000831117156101a957600080fd5b91908080601f016020809104026020016040519081016040528093929190818152602001838380828437600081840152601f19601f8201169050808301925050505050505091929192905050506107e8565b60405180858152602001806020018481526020018315158152602001828103825285818151815260200191508051906020019080838360005b8381101561024f578082015181840152602081019050610234565b50505050905090810190601f16801561027c5780820380516001836020036101000a031916815260200191505b509550505050505060405180910390f35b34801561029957600080fd5b506102a26108d3565b604051808273ffffffffffffffffffffffffffffffffffffffff16815260200191505060405180910390f35b3480156102da57600080fd5b5061043f600480360360808110156102f157600080fd5b810190808035906020019064010000000081111561030e57600080fd5b82018360208201111561032057600080fd5b8035906020019184600183028401116401000000008311171561034257600080fd5b91908080601f016020809104026020016040519081016040528093929190818152602001838380828437600081840152601f19601f82011690508083019250505050505050919291929080359060200190929190803590602001906401000000008111156103af57600080fd5b8201836020820111156103c157600080fd5b803590602001918460018302840111640100000000831117156103e357600080fd5b91908080601f016020809104026020016040519081016040528093929190818152602001838380828437600081840152601f19601f820116905080830192505050505050509192919290803590602001909291905050506108f7565b005b34801561044d57600080fd5b506105116004803603604081101561046457600080fd5b810190808035906020019064010000000081111561048157600080fd5b82018360208201111561049357600080fd5b803590602001918460018302840111640100000000831117156104b557600080fd5b91908080601f016020809104026020016040519081016040528093929190818152602001838380828437600081840152601f19601f82011690508083019250505050505050919291929080359060200190929190505050610bfd565b005b34801561051f57600080fd5b506105d96004803603602081101561053657600080fd5b810190808035906020019064010000000081111561055357600080fd5b82018360208201111561056557600080fd5b8035906020019184600183028401116401000000008311171561058757600080fd5b91908080601f016020809104026020016040519081016040528093929190818152602001838380828437600081840152601f19601f820116905080830192505050505050509192919290505050610cfe565b6040518080602001828103825283818151815260200191508051906020019060200280838360005b8381101561061c578082015181840152602081019050610601565b505050509050019250505060405180910390f35b6001826040518082805190602001908083835b602083106106665780518252602082019150602081019050602083039250610643565b6001836020036101000a0380198251168184511680821785525050505050509050019150509081526020016040518091039020600001546001836040518082805190602001908083835b602083106106d357805182526020820191506020810190506020830392506106b0565b6001836020036101000a0380198251168184511680821785525050505050509050019150509081526020016040518091039020600101805490501061071757600080fd5b6001826040518082805190602001908083835b6020831061074d578051825260208201915060208101905060208303925061072a565b6001836020036101000a0380198251168184511680821785525050505050509050019150509081526020016040518091039020600101819080600181540180825580915050600190039060005260206000200160009091909190916101000a81548173ffffffffffffffffffffffffffffffffffffffff021916908373ffffffffffffffffffffffffffffffffffffffff1602179055505050565b600181805160208101820180518482526020830160208501208183528095505050505050600091509050806000015490806002018054600181600116156101000203166002900480601f0160208091040260200160405190810160405280929190818152602001828054600181600116156101000203166002900480156108b05780601f10610885576101008083540402835291602001916108b0565b820191906000526020600020905b81548152906001019060200180831161089357829003601f168201915b5050505050908060030154908060040160009054906101000a900460ff16905084565b60008054906101000a900473ffffffffffffffffffffffffffffffffffffffff1681565b826001856040518082805190602001908083835b6020831061092e578051825260208201915060208101905060208303925061090b565b6001836020036101000a038019825116818451168082178552505050505050905001915050908152602001604051809103902060000181905550816001856040518082805190602001908083835b6020831061099f578051825260208201915060208101905060208303925061097c565b6001836020036101000a038019825116818451168082178552505050505050905001915050908152602001604051809103902060020190805190602001906109e8929190610df8565b50806001856040518082805190602001908083835b60208310610a2057805182526020820191506020810190506020830392506109fd565b6001836020036101000a038019825116818451168082178552505050505050905001915050908152602001604051809103902060030181905550600180856040518082805190602001908083835b60208310610a915780518252602082019150602081019050602083039250610a6e565b6001836020036101000a038019825116818451168082178552505050505050905001915050908152602001604051809103902060040160006101000a81548160ff0219169083151502179055507f1a2b3ae41b59e92a3c783330883750f11d161d85ae3f59010442b1d40237e53684848484604051808060200185815260200180602001848152602001838103835287818151815260200191508051906020019080838360005b83811015610b53578082015181840152602081019050610b38565b50505050905090810190601f168015610b805780820380516001836020036101000a031916815260200191505b50838103825285818151815260200191508051906020019080838360005b83811015610bb9578082015181840152602081019050610b9e565b50505050905090810190601f168015610be65780820380516001836020036101000a031916815260200191505b50965050505050505060405180910390a150505050565b6001826040518082805190602001908083835b60208310610c335780518252602082019150602081019050602083039250610c10565b6001836020036101000a038019825116818451168082178552505050505050905001915050908152602001604051809103902060040160009054906101000a900460ff16610c8057600080fd5b806001836040518082805190602001908083835b60208310610cb75780518252602082019150602081019050602083039250610c94565b6001836020036101000a0380198251168184511680821785525050505050509050019150509081526020016040518091039020600001600082825401925050819055505050565b60606001826040518082805190602001908083835b60208310610d365780518252602082019150602081019050602083039250610d13565b6001836020036101000a0380198251168184511680821785525050505050509050019150509081526020016040518091039020600101805480602002602001604051908101604052809291908181526020018280548015610dec57602002820191906000526020600020905b8160009054906101000a900473ffffffffffffffffffffffffffffffffffffffff1673ffffffffffffffffffffffffffffffffffffffff1681526020019060010190808311610da2575b50505050509050919050565b828054600181600116156101000203166002900490600052602060002090601f016020900481019282601f10610e3957805160ff1916838001178555610e67565b82800160010185558215610e67579182015b82811115610e66578251825591602001919060010190610e4b565b5b509050610e749190610e78565b5090565b5b80821115610e91576000816000905550600101610e79565b509056fea2646970667358221220321f2cabf2128f428378aef109c1a3dbc98c67e6859fc59f4b6c4691ab518dba64736f6c63430007010033",
  "immutableReferences": {},
  "source": "pragma solidity >=0.5.0 <0.9.0;\n\ncontract Tickets{\n    address public purchasers;\n    // uint256 constant Total_Supply = 20;\n    event Product(string product_name, uint quantity, string url, uint price);\n    \n    struct ProductDetails {\n        uint quantity;\n        address[] purchasers;\n        string url;\n        uint price;\n        bool isSet;\n    }\n    mapping(string => ProductDetails) public productList;\n    \n    struct Ticket{\n        address owner;\n        uint256 price;\n    }\n\n    // Ticket[Total_Supply] public tickets;\n\n    constructor() public{\n        // for (uint256 i = 0;i < Total_Supply; i++){\n        //     tickets[i].owner = address(0x0);\n        //     tickets[i].price = 1e17;\n        // }\n        purchasers = msg.sender;\n    }\n\n    function addProduct(string memory product_name, uint addQuantity, string memory url, uint price) public {\n        productList[product_name].quantity = addQuantity;\n        productList[product_name].url = url;\n        productList[product_name].price = price;\n        productList[product_name].isSet = true;\n\n        emit Product(product_name, addQuantity, url, price);\n    }\n\n    function addProductQuantity(string memory product, uint addQuantity) public {\n        require(productList[product].isSet);\n        productList[product].quantity += addQuantity;\n    }\n    \n    function purchaseProduct(string memory product_name, address purchasers) external payable {\n        require(productList[product_name].purchasers.length < productList[product_name].quantity); \n        productList[product_name].purchasers.push(purchasers);\n    }\n    \n    function getPurchasers(string memory product) public view returns (address[] memory purchasers) {\n        return productList[product].purchasers;\n    }\n\n    // function buyTicket(uint256 _index) external payable{\n    //     require(_index < Total_Supply && _index >= 0);\n    //     require(tickets[_index].owner == address(0x0));\n    //     require(msg.value >= tickets[_index].price);\n\n    //     tickets[_index].owner = msg.sender;\n    // }\n    \n}",
  "sourcePath": "/Users/markching/Desktop/HKMU/Year-4 Sem 2/ELEC-S431F/Project/E-Shop-Truffle/contracts/Tickets.sol",
  "compiler": {
    "name": "solc",
    "version": "0.7.1+commit.f4a555be.Emscripten.clang"
  },
  "schemaVersion": "3.4.16",
  "updatedAt": "2024-03-31T20:01:00.063Z",
  "networkType": "ethereum",
  "devdoc": {
    "kind": "dev",
    "methods": {},
    "version": 1
  },
  "userdoc": {
    "kind": "user",
    "methods": {},
    "version": 1
  }
}